{
  "contractName": "BEP20RewardBalanceV2",
  "abi": [
    {
      "inputs": [
        {
          "internalType": "contract IBEP20",
          "name": "_stakeToken",
          "type": "address"
        },
        {
          "internalType": "contract IBEP20",
          "name": "_rewardToken",
          "type": "address"
        },
        {
          "internalType": "uint256",
          "name": "_rewardPerBlock",
          "type": "uint256"
        },
        {
          "internalType": "uint256",
          "name": "_startBlock",
          "type": "uint256"
        },
        {
          "internalType": "uint256",
          "name": "_bonusEndBlock",
          "type": "uint256"
        }
      ],
      "stateMutability": "nonpayable",
      "type": "constructor"
    },
    {
      "anonymous": false,
      "inputs": [
        {
          "indexed": true,
          "internalType": "address",
          "name": "user",
          "type": "address"
        },
        {
          "indexed": false,
          "internalType": "uint256",
          "name": "amount",
          "type": "uint256"
        }
      ],
      "name": "Deposit",
      "type": "event"
    },
    {
      "anonymous": false,
      "inputs": [
        {
          "indexed": false,
          "internalType": "uint256",
          "name": "amount",
          "type": "uint256"
        }
      ],
      "name": "DepositRewards",
      "type": "event"
    },
    {
      "anonymous": false,
      "inputs": [
        {
          "indexed": true,
          "internalType": "address",
          "name": "user",
          "type": "address"
        },
        {
          "indexed": false,
          "internalType": "uint256",
          "name": "amount",
          "type": "uint256"
        }
      ],
      "name": "EmergencyRewardWithdraw",
      "type": "event"
    },
    {
      "anonymous": false,
      "inputs": [
        {
          "indexed": true,
          "internalType": "address",
          "name": "user",
          "type": "address"
        },
        {
          "indexed": false,
          "internalType": "uint256",
          "name": "amount",
          "type": "uint256"
        }
      ],
      "name": "EmergencyWithdraw",
      "type": "event"
    },
    {
      "anonymous": false,
      "inputs": [
        {
          "indexed": true,
          "internalType": "address",
          "name": "previousOwner",
          "type": "address"
        },
        {
          "indexed": true,
          "internalType": "address",
          "name": "newOwner",
          "type": "address"
        }
      ],
      "name": "OwnershipTransferred",
      "type": "event"
    },
    {
      "anonymous": false,
      "inputs": [
        {
          "indexed": true,
          "internalType": "address",
          "name": "user",
          "type": "address"
        },
        {
          "indexed": false,
          "internalType": "uint256",
          "name": "amount",
          "type": "uint256"
        }
      ],
      "name": "SkimStakeTokenFees",
      "type": "event"
    },
    {
      "anonymous": false,
      "inputs": [
        {
          "indexed": true,
          "internalType": "address",
          "name": "user",
          "type": "address"
        },
        {
          "indexed": false,
          "internalType": "uint256",
          "name": "amount",
          "type": "uint256"
        }
      ],
      "name": "Withdraw",
      "type": "event"
    },
    {
      "inputs": [],
      "name": "bonusEndBlock",
      "outputs": [
        {
          "internalType": "uint256",
          "name": "",
          "type": "uint256"
        }
      ],
      "stateMutability": "view",
      "type": "function",
      "constant": true
    },
    {
      "inputs": [],
      "name": "owner",
      "outputs": [
        {
          "internalType": "address",
          "name": "",
          "type": "address"
        }
      ],
      "stateMutability": "view",
      "type": "function",
      "constant": true
    },
    {
      "inputs": [
        {
          "internalType": "uint256",
          "name": "",
          "type": "uint256"
        }
      ],
      "name": "poolInfo",
      "outputs": [
        {
          "internalType": "contract IBEP20",
          "name": "lpToken",
          "type": "address"
        },
        {
          "internalType": "uint256",
          "name": "allocPoint",
          "type": "uint256"
        },
        {
          "internalType": "uint256",
          "name": "lastRewardBlock",
          "type": "uint256"
        },
        {
          "internalType": "uint256",
          "name": "accRewardTokenPerShare",
          "type": "uint256"
        }
      ],
      "stateMutability": "view",
      "type": "function",
      "constant": true
    },
    {
      "inputs": [],
      "name": "renounceOwnership",
      "outputs": [],
      "stateMutability": "nonpayable",
      "type": "function"
    },
    {
      "inputs": [],
      "name": "rewardPerBlock",
      "outputs": [
        {
          "internalType": "uint256",
          "name": "",
          "type": "uint256"
        }
      ],
      "stateMutability": "view",
      "type": "function",
      "constant": true
    },
    {
      "inputs": [],
      "name": "rewardToken",
      "outputs": [
        {
          "internalType": "contract IBEP20",
          "name": "",
          "type": "address"
        }
      ],
      "stateMutability": "view",
      "type": "function",
      "constant": true
    },
    {
      "inputs": [],
      "name": "stakeToken",
      "outputs": [
        {
          "internalType": "contract IBEP20",
          "name": "",
          "type": "address"
        }
      ],
      "stateMutability": "view",
      "type": "function",
      "constant": true
    },
    {
      "inputs": [],
      "name": "startBlock",
      "outputs": [
        {
          "internalType": "uint256",
          "name": "",
          "type": "uint256"
        }
      ],
      "stateMutability": "view",
      "type": "function",
      "constant": true
    },
    {
      "inputs": [],
      "name": "totalStaked",
      "outputs": [
        {
          "internalType": "uint256",
          "name": "",
          "type": "uint256"
        }
      ],
      "stateMutability": "view",
      "type": "function",
      "constant": true
    },
    {
      "inputs": [
        {
          "internalType": "address",
          "name": "newOwner",
          "type": "address"
        }
      ],
      "name": "transferOwnership",
      "outputs": [],
      "stateMutability": "nonpayable",
      "type": "function"
    },
    {
      "inputs": [
        {
          "internalType": "address",
          "name": "",
          "type": "address"
        }
      ],
      "name": "userInfo",
      "outputs": [
        {
          "internalType": "uint256",
          "name": "amount",
          "type": "uint256"
        },
        {
          "internalType": "uint256",
          "name": "rewardDebt",
          "type": "uint256"
        }
      ],
      "stateMutability": "view",
      "type": "function",
      "constant": true
    },
    {
      "inputs": [
        {
          "internalType": "uint256",
          "name": "_from",
          "type": "uint256"
        },
        {
          "internalType": "uint256",
          "name": "_to",
          "type": "uint256"
        }
      ],
      "name": "getMultiplier",
      "outputs": [
        {
          "internalType": "uint256",
          "name": "",
          "type": "uint256"
        }
      ],
      "stateMutability": "view",
      "type": "function",
      "constant": true
    },
    {
      "inputs": [
        {
          "internalType": "address",
          "name": "_user",
          "type": "address"
        }
      ],
      "name": "pendingReward",
      "outputs": [
        {
          "internalType": "uint256",
          "name": "",
          "type": "uint256"
        }
      ],
      "stateMutability": "view",
      "type": "function",
      "constant": true
    },
    {
      "inputs": [
        {
          "internalType": "uint256",
          "name": "_pid",
          "type": "uint256"
        }
      ],
      "name": "updatePool",
      "outputs": [],
      "stateMutability": "nonpayable",
      "type": "function"
    },
    {
      "inputs": [],
      "name": "massUpdatePools",
      "outputs": [],
      "stateMutability": "nonpayable",
      "type": "function"
    },
    {
      "inputs": [
        {
          "internalType": "uint256",
          "name": "_amount",
          "type": "uint256"
        }
      ],
      "name": "deposit",
      "outputs": [],
      "stateMutability": "nonpayable",
      "type": "function"
    },
    {
      "inputs": [
        {
          "internalType": "uint256",
          "name": "_amount",
          "type": "uint256"
        }
      ],
      "name": "withdraw",
      "outputs": [],
      "stateMutability": "nonpayable",
      "type": "function"
    },
    {
      "inputs": [],
      "name": "rewardBalance",
      "outputs": [
        {
          "internalType": "uint256",
          "name": "",
          "type": "uint256"
        }
      ],
      "stateMutability": "view",
      "type": "function",
      "constant": true
    },
    {
      "inputs": [
        {
          "internalType": "uint256",
          "name": "_amount",
          "type": "uint256"
        }
      ],
      "name": "depositRewards",
      "outputs": [],
      "stateMutability": "nonpayable",
      "type": "function"
    },
    {
      "inputs": [
        {
          "internalType": "uint256",
          "name": "_rewardPerBlock",
          "type": "uint256"
        }
      ],
      "name": "setRewardPerBlock",
      "outputs": [],
      "stateMutability": "nonpayable",
      "type": "function"
    },
    {
      "inputs": [
        {
          "internalType": "uint256",
          "name": "_bonusEndBlock",
          "type": "uint256"
        }
      ],
      "name": "setBonusEndBlock",
      "outputs": [],
      "stateMutability": "nonpayable",
      "type": "function"
    },
    {
      "inputs": [],
      "name": "getStakeTokenFeeBalance",
      "outputs": [
        {
          "internalType": "uint256",
          "name": "",
          "type": "uint256"
        }
      ],
      "stateMutability": "view",
      "type": "function",
      "constant": true
    },
    {
      "inputs": [],
      "name": "totalStakeTokenBalance",
      "outputs": [
        {
          "internalType": "uint256",
          "name": "",
          "type": "uint256"
        }
      ],
      "stateMutability": "view",
      "type": "function",
      "constant": true
    },
    {
      "inputs": [],
      "name": "skimStakeTokenFees",
      "outputs": [],
      "stateMutability": "nonpayable",
      "type": "function"
    },
    {
      "inputs": [],
      "name": "emergencyWithdraw",
      "outputs": [],
      "stateMutability": "nonpayable",
      "type": "function"
    },
    {
      "inputs": [
        {
          "internalType": "uint256",
          "name": "_amount",
          "type": "uint256"
        }
      ],
      "name": "emergencyRewardWithdraw",
      "outputs": [],
      "stateMutability": "nonpayable",
      "type": "function"
    }
  ],
  "bytecode": "0x60806040526000600455600060075534801561001a57600080fd5b5060405161189a38038061189a833981810160405260a081101561003d57600080fd5b5080516020820151604083015160608401516080909401519293919290919060006100666101d6565b600080546001600160a01b0319166001600160a01b0383169081178255604051929350917f8be0079c531659141344cd1fd0a4f28419497f9722a3daafe3b4186f6b6457e0908290a350600180546001600160a01b03199081166001600160a01b039788169081178355600280548316978916979097179096556003949094556008839055600991909155604080516080810182529485526103e86020860181815291860193845260006060870181815260058054958601815590915295517f036b6384b5eca791c62761152d0c79bb0604c104a5fb6f4eb0703f3154bb3db06004909402938401805490961697169690961790935591517f036b6384b5eca791c62761152d0c79bb0604c104a5fb6f4eb0703f3154bb3db1830155517f036b6384b5eca791c62761152d0c79bb0604c104a5fb6f4eb0703f3154bb3db282015590517f036b6384b5eca791c62761152d0c79bb0604c104a5fb6f4eb0703f3154bb3db3909101556007556101da565b3390565b6116b1806101e96000396000f3fe608060405234801561001057600080fd5b506004361061018e5760003560e01c80638bdf67f2116100de578063aa5c3ab411610097578063db2e21bc11610071578063db2e21bc1461039d578063f2fde38b146103a5578063f40f0f52146103cb578063f7c618c1146103f15761018e565b8063aa5c3ab41461035b578063b6b55f2514610363578063bb872b4a146103805761018e565b80638bdf67f2146102e65780638da5cb5b146103035780638dbb1e3a1461030b578063970db7fa1461032e5780639e0af23414610336578063a49ceb19146103535761018e565b806351eb05a61161014b578063715018a611610125578063715018a6146102c6578063812bc708146102ce578063817b1cd2146102d65780638ae39cac146102de5761018e565b806351eb05a61461027d57806351ed6a301461029a578063630b5ba1146102be5761018e565b80631526fe27146101935780631959a002146101e05780631aed65531461021f5780632e1a7d4d146102395780633279beab1461025857806348cd4cb114610275575b600080fd5b6101b0600480360360208110156101a957600080fd5b50356103f9565b604080516001600160a01b0390951685526020850193909352838301919091526060830152519081900360800190f35b610206600480360360208110156101f657600080fd5b50356001600160a01b031661043a565b6040805192835260208301919091528051918290030190f35b610227610453565b60408051918252519081900360200190f35b6102566004803603602081101561024f57600080fd5b5035610459565b005b6102566004803603602081101561026e57600080fd5b50356105fb565b6102276106e7565b6102566004803603602081101561029357600080fd5b50356106ed565b6102a26107b4565b604080516001600160a01b039092168252519081900360200190f35b6102566107c3565b6102566107e6565b610227610888565b61022761089d565b6102276108a3565b610256600480360360208110156102fc57600080fd5b50356108a9565b6102a2610936565b6102276004803603604081101561032157600080fd5b5080359060200135610945565b610256610985565b6102566004803603602081101561034c57600080fd5b5035610a3a565b610227610ad7565b610227610b53565b6102566004803603602081101561037957600080fd5b5035610b9e565b6102566004803603602081101561039657600080fd5b5035610d0d565b610256610d6a565b610256600480360360208110156103bb57600080fd5b50356001600160a01b0316610e0e565b610227600480360360208110156103e157600080fd5b50356001600160a01b0316610e6f565b6102a2610f70565b6005818154811061040657fe5b600091825260209091206004909102018054600182015460028301546003909301546001600160a01b039092169350919084565b6006602052600090815260409020805460019091015482565b60095481565b6000600560008154811061046957fe5b60009182526020808320338452600690915260409092208054600490920290920192508311156104d5576040805162461bcd60e51b81526020600482015260126024820152711dda5d1a191c985dce881b9bdd0819dbdbd960721b604482015290519081900360640190fd5b6104df60006106ed565b6000610520826001015461051a68327cb2734119d3b7a9601e1b61051487600301548760000154610f7f90919063ffffffff16565b90610fdf565b90611021565b9050801561055d576000610532610b53565b9050801561055b57808211156105515761054c3382611063565b61055b565b61055b3383611063565b505b831561059857815461056f9085611021565b82558254610587906001600160a01b03163386611076565b6004546105949085611021565b6004555b600383015482546105ba9168327cb2734119d3b7a9601e1b9161051491610f7f565b600183015560408051858152905133917f884edad9ce6fa2440d8a54cc123490eb96d2768479d49ff9c7366125a9424364919081900360200190a250505050565b6106036110cd565b6000546001600160a01b03908116911614610653576040805162461bcd60e51b81526020600482018190526024820152600080516020611607833981519152604482015290519081900360640190fd5b61065b610b53565b8111156106a4576040805162461bcd60e51b81526020600482015260126024820152716e6f7420656e6f756768207265776172647360701b604482015290519081900360640190fd5b6106ae3382611063565b60408051828152905133917f2d4434bb59801e733e9ce3df40b0c5518861a5fcdeec1906e83e03c755872b42919081900360200190a250565b60085481565b6000600582815481106106fc57fe5b906000526020600020906004020190508060020154431161071d57506107b1565b60045461073057436002909101556107b1565b6000610740826002015443610945565b9050600061076d600754610514856001015461076760035487610f7f90919063ffffffff16565b90610f7f565b90506107a261079760045461051468327cb2734119d3b7a9601e1b85610f7f90919063ffffffff16565b6003850154906110d1565b60038401555050436002909101555b50565b6001546001600160a01b031681565b60055460005b818110156107e2576107da816106ed565b6001016107c9565b5050565b6107ee6110cd565b6000546001600160a01b0390811691161461083e576040805162461bcd60e51b81526020600482018190526024820152600080516020611607833981519152604482015290519081900360640190fd5b600080546040516001600160a01b03909116907f8be0079c531659141344cd1fd0a4f28419497f9722a3daafe3b4186f6b6457e0908390a3600080546001600160a01b0319169055565b600061089860045461051a610ad7565b905090565b60045481565b60035481565b600081116108e85760405162461bcd60e51b81526004018080602001828103825260258152602001806116276025913960400191505060405180910390fd5b600254610900906001600160a01b031633308461112b565b6040805182815290517f754fe3a3c69256b66ca56365fda4bbf3299d7c94038c105ffd43fb4b37f56db69181900360200190a150565b6000546001600160a01b031690565b600060095482116109615761095a8284611021565b905061097f565b60095483106109725750600061097f565b60095461095a9084611021565b92915050565b61098d6110cd565b6000546001600160a01b039081169116146109dd576040805162461bcd60e51b81526020600482018190526024820152600080516020611607833981519152604482015290519081900360640190fd5b60006109e7610888565b600154909150610a01906001600160a01b03163383611076565b60408051828152905133917feb4e6a6a8d3c8edbd6ef48316a3670cfa0e6374eebe3f555e620399f866d2f32919081900360200190a250565b610a426110cd565b6000546001600160a01b03908116911614610a92576040805162461bcd60e51b81526020600482018190526024820152600080516020611607833981519152604482015290519081900360640190fd5b6009548111610ad25760405162461bcd60e51b815260040180806020018281038252603081526020018061164c6030913960400191505060405180910390fd5b600955565b600154604080516370a0823160e01b815230600482015290516000926001600160a01b0316916370a08231916024808301926020929190829003018186803b158015610b2257600080fd5b505afa158015610b36573d6000803e3d6000fd5b505050506040513d6020811015610b4c57600080fd5b5051905090565b600254604080516370a0823160e01b815230600482015290516000926001600160a01b0316916370a08231916024808301926020929190829003018186803b158015610b2257600080fd5b60006005600081548110610bae57fe5b60009182526020808320338452600690915260408320600490920201925090610bd6816106ed565b815415610c51576000610c12836001015461051a68327cb2734119d3b7a9601e1b61051488600301548860000154610f7f90919063ffffffff16565b90508015610c4f576000610c24610b53565b90508015610c4d5780821115610c4357610c3e3382611063565b610c4d565b610c4d3383611063565b505b505b8315610caa576000610c61610ad7565b8454909150610c7b906001600160a01b031633308861112b565b610c878161051a610ad7565b8354909250610c9690836110d1565b8355600454610ca590836110d1565b600455505b60038301548254610ccc9168327cb2734119d3b7a9601e1b9161051491610f7f565b600183015560408051828152905133917fe1fffcc4923d04b559f4d29a8bfc6cda04eb5b0d3c460751c2402c5c5cc9109c919081900360200190a250505050565b610d156110cd565b6000546001600160a01b03908116911614610d65576040805162461bcd60e51b81526020600482018190526024820152600080516020611607833981519152604482015290519081900360640190fd5b600355565b60006005600081548110610d7a57fe5b600091825260208083203380855260069092526040909320805460049093029093018054909450610db8926001600160a01b03919091169190611076565b8054600454610dc691611021565b600455600080825560018201819055604080519182525133917f5fafa99d0643513820be26656b45130b01e1c03062e1266bf36f88cbd3bd9695919081900360200190a25050565b610e166110cd565b6000546001600160a01b03908116911614610e66576040805162461bcd60e51b81526020600482018190526024820152600080516020611607833981519152604482015290519081900360640190fd5b6107b18161118b565b6000806005600081548110610e8057fe5b600091825260208083206001600160a01b038716845260069091526040909220600360049092029092019081015460028201549193509043118015610ec6575060045415155b15610f38576000610edb846002015443610945565b90506000610f02600754610514876001015461076760035487610f7f90919063ffffffff16565b9050610f33610f2c60045461051468327cb2734119d3b7a9601e1b85610f7f90919063ffffffff16565b84906110d1565b925050505b610f67826001015461051a68327cb2734119d3b7a9601e1b610514858760000154610f7f90919063ffffffff16565b95945050505050565b6002546001600160a01b031681565b600082610f8e5750600061097f565b82820282848281610f9b57fe5b0414610fd85760405162461bcd60e51b81526004018080602001828103825260218152602001806115e66021913960400191505060405180910390fd5b9392505050565b6000610fd883836040518060400160405280601a81526020017f536166654d6174683a206469766973696f6e206279207a65726f00000000000081525061122b565b6000610fd883836040518060400160405280601e81526020017f536166654d6174683a207375627472616374696f6e206f766572666c6f7700008152506112cd565b6002546107e2906001600160a01b031683835b604080516001600160a01b038416602482015260448082018490528251808303909101815260649091019091526020810180516001600160e01b031663a9059cbb60e01b1790526110c8908490611327565b505050565b3390565b600082820183811015610fd8576040805162461bcd60e51b815260206004820152601b60248201527f536166654d6174683a206164646974696f6e206f766572666c6f770000000000604482015290519081900360640190fd5b604080516001600160a01b0380861660248301528416604482015260648082018490528251808303909101815260849091019091526020810180516001600160e01b03166323b872dd60e01b179052611185908590611327565b50505050565b6001600160a01b0381166111d05760405162461bcd60e51b81526004018080602001828103825260268152602001806115c06026913960400191505060405180910390fd5b600080546040516001600160a01b03808516939216917f8be0079c531659141344cd1fd0a4f28419497f9722a3daafe3b4186f6b6457e091a3600080546001600160a01b0319166001600160a01b0392909216919091179055565b600081836112b75760405162461bcd60e51b81526004018080602001828103825283818151815260200191508051906020019080838360005b8381101561127c578181015183820152602001611264565b50505050905090810190601f1680156112a95780820380516001836020036101000a031916815260200191505b509250505060405180910390fd5b5060008385816112c357fe5b0495945050505050565b6000818484111561131f5760405162461bcd60e51b815260206004820181815283516024840152835190928392604490910191908501908083836000831561127c578181015183820152602001611264565b505050900390565b606061137c826040518060400160405280602081526020017f5361666542455032303a206c6f772d6c6576656c2063616c6c206661696c6564815250856001600160a01b03166113d89092919063ffffffff16565b8051909150156110c85780806020019051602081101561139b57600080fd5b50516110c85760405162461bcd60e51b815260040180806020018281038252602a815260200180611596602a913960400191505060405180910390fd5b60606113e784846000856113ef565b949350505050565b60606113fa8561155c565b61144b576040805162461bcd60e51b815260206004820152601d60248201527f416464726573733a2063616c6c20746f206e6f6e2d636f6e7472616374000000604482015290519081900360640190fd5b60006060866001600160a01b031685876040518082805190602001908083835b6020831061148a5780518252601f19909201916020918201910161146b565b6001836020036101000a03801982511681845116808217855250505050505090500191505060006040518083038185875af1925050503d80600081146114ec576040519150601f19603f3d011682016040523d82523d6000602084013e6114f1565b606091505b509150915081156115055791506113e79050565b8051156115155780518082602001fd5b60405162461bcd60e51b815260206004820181815286516024840152865187939192839260440191908501908083836000831561127c578181015183820152602001611264565b6000813f7fc5d2460186f7233c927e7db2dcc703c0e500b653ca82273b7bfad8045d85a4708181148015906113e757505015159291505056fe5361666542455032303a204245503230206f7065726174696f6e20646964206e6f7420737563636565644f776e61626c653a206e6577206f776e657220697320746865207a65726f2061646472657373536166654d6174683a206d756c7469706c69636174696f6e206f766572666c6f774f776e61626c653a2063616c6c6572206973206e6f7420746865206f776e65724465706f7369742076616c7565206d7573742062652067726561746572207468616e20302e6e657720626f6e757320656e6420626c6f636b206d7573742062652067726561746572207468616e2063757272656e74a2646970667358221220a5b3d38c61ca228a3f1a4e50f7e7177e1d6c0dfe5c4f1044c29539cffed2318b64736f6c634300060c0033",
  "immutableReferences": {},
  "source": "pragma solidity 0.6.12;\n\n\nimport '@pancakeswap/pancake-swap-lib/contracts/math/SafeMath.sol';\nimport '@pancakeswap/pancake-swap-lib/contracts/token/BEP20/IBEP20.sol';\nimport '@pancakeswap/pancake-swap-lib/contracts/token/BEP20/SafeBEP20.sol';\nimport '@pancakeswap/pancake-swap-lib/contracts/access/Ownable.sol';\n\n\ncontract BEP20RewardBalanceV2 is Ownable {\n    using SafeMath for uint256;\n    using SafeBEP20 for IBEP20;\n\n    // Info of each user.\n    struct UserInfo {\n        uint256 amount;     // How many LP tokens the user has provided.\n        uint256 rewardDebt; // Reward debt. See explanation below.\n    }\n\n    // Info of each pool.\n    struct PoolInfo {\n        IBEP20 lpToken;           // Address of LP token contract.\n        uint256 allocPoint;       // How many allocation points assigned to this pool. Rewards to distribute per block.\n        uint256 lastRewardBlock;  // Last block number that Rewards distribution occurs.\n        uint256 accRewardTokenPerShare; // Accumulated Rewards per share, times 1e30. See below.\n    }\n\n    // The stake token\n    IBEP20 public stakeToken;\n    // The reward token\n    IBEP20 public rewardToken;\n\n    // Reward tokens created per block.\n    uint256 public rewardPerBlock;\n\n    // Keep track of number of tokens staked in case the contract earns reflect fees\n    uint256 public totalStaked = 0;\n\n    // Info of each pool.\n    PoolInfo[] public poolInfo;\n    // Info of each user that stakes LP tokens.\n    mapping (address => UserInfo) public userInfo;\n    // Total allocation poitns. Must be the sum of all allocation points in all pools.\n    uint256 private totalAllocPoint = 0;\n    // The block number when Reward mining starts.\n    uint256 public startBlock;\n\t// The block number when mining ends.\n    uint256 public bonusEndBlock;\n\n    event Deposit(address indexed user, uint256 amount);\n    event DepositRewards(uint256 amount);\n    event Withdraw(address indexed user, uint256 amount);\n    event EmergencyWithdraw(address indexed user, uint256 amount);\n    event EmergencyRewardWithdraw(address indexed user, uint256 amount);\n    event SkimStakeTokenFees(address indexed user, uint256 amount);\n\n    constructor(\n        IBEP20 _stakeToken,\n        IBEP20 _rewardToken,\n        uint256 _rewardPerBlock,\n        uint256 _startBlock,\n        uint256 _bonusEndBlock\n    ) public {\n        stakeToken = _stakeToken;\n        rewardToken = _rewardToken;\n        rewardPerBlock = _rewardPerBlock;\n        startBlock = _startBlock;\n        bonusEndBlock = _bonusEndBlock;\n\n        // staking pool\n        poolInfo.push(PoolInfo({\n            lpToken: _stakeToken,\n            allocPoint: 1000,\n            lastRewardBlock: startBlock,\n            accRewardTokenPerShare: 0\n        }));\n\n        totalAllocPoint = 1000;\n\n    }\n\n    // Return reward multiplier over the given _from to _to block.\n    function getMultiplier(uint256 _from, uint256 _to) public view returns (uint256) {\n        if (_to <= bonusEndBlock) {\n            return _to.sub(_from);\n        } else if (_from >= bonusEndBlock) {\n            return 0;\n        } else {\n            return bonusEndBlock.sub(_from);\n        }\n    }\n\n    // View function to see pending Reward on frontend.\n    function pendingReward(address _user) external view returns (uint256) {\n        PoolInfo storage pool = poolInfo[0];\n        UserInfo storage user = userInfo[_user];\n        uint256 accRewardTokenPerShare = pool.accRewardTokenPerShare;\n        if (block.number > pool.lastRewardBlock && totalStaked != 0) {\n            uint256 multiplier = getMultiplier(pool.lastRewardBlock, block.number);\n            uint256 tokenReward = multiplier.mul(rewardPerBlock).mul(pool.allocPoint).div(totalAllocPoint);\n            accRewardTokenPerShare = accRewardTokenPerShare.add(tokenReward.mul(1e30).div(totalStaked));\n        }\n        return user.amount.mul(accRewardTokenPerShare).div(1e30).sub(user.rewardDebt);\n    }\n\n    // Update reward variables of the given pool to be up-to-date.\n    function updatePool(uint256 _pid) public {\n        PoolInfo storage pool = poolInfo[_pid];\n        if (block.number <= pool.lastRewardBlock) {\n            return;\n        }\n        if (totalStaked == 0) {\n            pool.lastRewardBlock = block.number;\n            return;\n        }\n        uint256 multiplier = getMultiplier(pool.lastRewardBlock, block.number);\n        uint256 tokenReward = multiplier.mul(rewardPerBlock).mul(pool.allocPoint).div(totalAllocPoint);\n        pool.accRewardTokenPerShare = pool.accRewardTokenPerShare.add(tokenReward.mul(1e30).div(totalStaked));\n        pool.lastRewardBlock = block.number;\n    }\n\n    // Update reward variables for all pools. Be careful of gas spending!\n    function massUpdatePools() public {\n        uint256 length = poolInfo.length;\n        for (uint256 pid = 0; pid < length; ++pid) {\n            updatePool(pid);\n        }\n    }\n\n\n    /// Deposit staking token into the contract to earn rewards.\n    /// @dev Since this contract needs to be supplied with rewards we are\n    ///  sending the balance of the contract if the pending rewards are higher\n    /// @param _amount The amount of staking tokens to deposit\n    function deposit(uint256 _amount) public {\n        PoolInfo storage pool = poolInfo[0];\n        UserInfo storage user = userInfo[msg.sender];\n        uint256 finalDepositAmount = 0;\n        updatePool(0);\n        if (user.amount > 0) {\n            uint256 pending = user.amount.mul(pool.accRewardTokenPerShare).div(1e30).sub(user.rewardDebt);\n            if(pending > 0) {\n                uint256 currentRewardBalance = rewardBalance();\n                if(currentRewardBalance > 0) {\n                    if(pending > currentRewardBalance) {\n                        safeTransferReward(address(msg.sender), currentRewardBalance);\n                    } else {\n                        safeTransferReward(address(msg.sender), pending);\n                    }\n                }\n            }\n        }\n        if (_amount > 0) {\n            uint256 preStakeBalance = totalStakeTokenBalance();\n            pool.lpToken.safeTransferFrom(address(msg.sender), address(this), _amount);\n            finalDepositAmount = totalStakeTokenBalance().sub(preStakeBalance);\n            user.amount = user.amount.add(finalDepositAmount);\n            totalStaked = totalStaked.add(finalDepositAmount);\n        }\n        user.rewardDebt = user.amount.mul(pool.accRewardTokenPerShare).div(1e30);\n\n        emit Deposit(msg.sender, finalDepositAmount);\n    }\n\n    /// Withdraw rewards and/or staked tokens. Pass a 0 amount to withdraw only rewards\n    /// @param _amount The amount of staking tokens to withdraw\n    function withdraw(uint256 _amount) public {\n        PoolInfo storage pool = poolInfo[0];\n        UserInfo storage user = userInfo[msg.sender];\n        require(user.amount >= _amount, \"withdraw: not good\");\n        updatePool(0);\n        uint256 pending = user.amount.mul(pool.accRewardTokenPerShare).div(1e30).sub(user.rewardDebt);\n        if(pending > 0) {\n            uint256 currentRewardBalance = rewardBalance();\n            if(currentRewardBalance > 0) {\n                if(pending > currentRewardBalance) {\n                    safeTransferReward(address(msg.sender), currentRewardBalance);\n                } else {\n                    safeTransferReward(address(msg.sender), pending);\n                }\n            }\n        }\n        if(_amount > 0) {\n            user.amount = user.amount.sub(_amount);\n            pool.lpToken.safeTransfer(address(msg.sender), _amount);\n            totalStaked = totalStaked.sub(_amount);\n        }\n\n        user.rewardDebt = user.amount.mul(pool.accRewardTokenPerShare).div(1e30);\n\n        emit Withdraw(msg.sender, _amount);\n    }\n\n    /// Obtain the reward balance of this contract\n    /// @return wei balace of conract\n    function rewardBalance() public view returns (uint256) {\n        return rewardToken.balanceOf(address(this));\n    }\n\n    // Deposit Rewards into contract\n    function depositRewards(uint256 _amount) external {\n        require(_amount > 0, 'Deposit value must be greater than 0.');\n        rewardToken.safeTransferFrom(address(msg.sender), address(this), _amount);\n        emit DepositRewards(_amount);\n    }\n\n    /// @param _to address to send reward token to\n    /// @param _amount value of reward token to transfer\n    function safeTransferReward(address _to, uint256 _amount) internal {\n        rewardToken.safeTransfer(_to, _amount);\n    }\n\n    /* Admin Functions */\n\n    /// @param _rewardPerBlock The amount of reward tokens to be given per block\n    function setRewardPerBlock(uint256 _rewardPerBlock) external onlyOwner {\n        rewardPerBlock = _rewardPerBlock;\n    }\n\n    /// @param  _bonusEndBlock The block when rewards will end\n    function setBonusEndBlock(uint256 _bonusEndBlock) external onlyOwner {\n        require(_bonusEndBlock > bonusEndBlock, 'new bonus end block must be greater than current');\n        bonusEndBlock = _bonusEndBlock;\n    }\n\n    /// @dev Obtain the stake token fees (if any) earned by reflect token\n    function getStakeTokenFeeBalance() public view returns (uint256) {\n        return totalStakeTokenBalance().sub(totalStaked);\n    }\n\n    /// @dev Obtain the stake balance of this contract\n    /// @return wei balace of contract\n    function totalStakeTokenBalance() public view returns (uint256) {\n        // Return BEO20 balance\n        return stakeToken.balanceOf(address(this));\n    }\n\n    /// @dev Remove excess stake tokens earned by reflect fees\n    function skimStakeTokenFees() external onlyOwner {\n        uint256 stakeTokenFeeBalance = getStakeTokenFeeBalance();\n        stakeToken.safeTransfer(msg.sender, stakeTokenFeeBalance);\n        emit SkimStakeTokenFees(msg.sender, stakeTokenFeeBalance);\n    }\n\n    /* Emergency Functions */\n\n    // Withdraw without caring about rewards. EMERGENCY ONLY.\n    function emergencyWithdraw() external {\n        PoolInfo storage pool = poolInfo[0];\n        UserInfo storage user = userInfo[msg.sender];\n        pool.lpToken.safeTransfer(address(msg.sender), user.amount);\n        totalStaked = totalStaked.sub(user.amount);\n        user.amount = 0;\n        user.rewardDebt = 0;\n        emit EmergencyWithdraw(msg.sender, user.amount);\n    }\n\n    // Withdraw reward. EMERGENCY ONLY.\n    function emergencyRewardWithdraw(uint256 _amount) external onlyOwner {\n        require(_amount <= rewardBalance(), 'not enough rewards');\n        // Withdraw rewards\n        safeTransferReward(address(msg.sender), _amount);\n        emit EmergencyRewardWithdraw(msg.sender, _amount);\n    }\n\n}",
  "sourcePath": "C:\\Users\\OmrElibol\\OneDrive\\Masast\\BalanceContractRevise\\contracts\\BEP20RewardBalanceV2.sol",
  "compiler": {
    "name": "solc",
    "version": "0.6.12+commit.27d51765.Emscripten.clang"
  },
  "schemaVersion": "3.4.10",
  "updatedAt": "2022-10-03T08:17:51.872Z",
  "networkType": "ethereum",
  "devdoc": {
    "kind": "dev",
    "methods": {
      "deposit(uint256)": {
        "details": "Since this contract needs to be supplied with rewards we are  sending the balance of the contract if the pending rewards are higher",
        "params": {
          "_amount": "The amount of staking tokens to deposit"
        }
      },
      "getStakeTokenFeeBalance()": {
        "details": "Obtain the stake token fees (if any) earned by reflect token"
      },
      "owner()": {
        "details": "Returns the address of the current owner."
      },
      "renounceOwnership()": {
        "details": "Leaves the contract without owner. It will not be possible to call `onlyOwner` functions anymore. Can only be called by the current owner. NOTE: Renouncing ownership will leave the contract without an owner, thereby removing any functionality that is only available to the owner."
      },
      "rewardBalance()": {
        "returns": {
          "_0": "wei balace of conract"
        }
      },
      "setBonusEndBlock(uint256)": {
        "params": {
          "_bonusEndBlock": "The block when rewards will end"
        }
      },
      "setRewardPerBlock(uint256)": {
        "params": {
          "_rewardPerBlock": "The amount of reward tokens to be given per block"
        }
      },
      "skimStakeTokenFees()": {
        "details": "Remove excess stake tokens earned by reflect fees"
      },
      "totalStakeTokenBalance()": {
        "details": "Obtain the stake balance of this contract",
        "returns": {
          "_0": "wei balace of contract"
        }
      },
      "transferOwnership(address)": {
        "details": "Transfers ownership of the contract to a new account (`newOwner`). Can only be called by the current owner."
      },
      "withdraw(uint256)": {
        "params": {
          "_amount": "The amount of staking tokens to withdraw"
        }
      }
    },
    "version": 1
  },
  "userdoc": {
    "kind": "user",
    "methods": {
      "deposit(uint256)": {
        "notice": "Deposit staking token into the contract to earn rewards."
      },
      "rewardBalance()": {
        "notice": "Obtain the reward balance of this contract"
      },
      "withdraw(uint256)": {
        "notice": "Withdraw rewards and/or staked tokens. Pass a 0 amount to withdraw only rewards"
      }
    },
    "version": 1
  }
}