{
  "contractName": "BEP20RewardBalance",
  "abi": [
    {
      "inputs": [
        {
          "internalType": "contract IBEP20",
          "name": "_stakeToken",
          "type": "address"
        },
        {
          "internalType": "contract IBEP20",
          "name": "_rewardToken",
          "type": "address"
        },
        {
          "internalType": "uint256",
          "name": "_rewardPerBlock",
          "type": "uint256"
        },
        {
          "internalType": "uint256",
          "name": "_startBlock",
          "type": "uint256"
        },
        {
          "internalType": "uint256",
          "name": "_bonusEndBlock",
          "type": "uint256"
        }
      ],
      "stateMutability": "nonpayable",
      "type": "constructor"
    },
    {
      "anonymous": false,
      "inputs": [
        {
          "indexed": true,
          "internalType": "address",
          "name": "user",
          "type": "address"
        },
        {
          "indexed": false,
          "internalType": "uint256",
          "name": "amount",
          "type": "uint256"
        }
      ],
      "name": "Deposit",
      "type": "event"
    },
    {
      "anonymous": false,
      "inputs": [
        {
          "indexed": false,
          "internalType": "uint256",
          "name": "amount",
          "type": "uint256"
        }
      ],
      "name": "DepositRewards",
      "type": "event"
    },
    {
      "anonymous": false,
      "inputs": [
        {
          "indexed": true,
          "internalType": "address",
          "name": "user",
          "type": "address"
        },
        {
          "indexed": false,
          "internalType": "uint256",
          "name": "amount",
          "type": "uint256"
        }
      ],
      "name": "EmergencyRewardWithdraw",
      "type": "event"
    },
    {
      "anonymous": false,
      "inputs": [
        {
          "indexed": true,
          "internalType": "address",
          "name": "user",
          "type": "address"
        },
        {
          "indexed": false,
          "internalType": "uint256",
          "name": "amount",
          "type": "uint256"
        }
      ],
      "name": "EmergencyWithdraw",
      "type": "event"
    },
    {
      "anonymous": false,
      "inputs": [
        {
          "indexed": true,
          "internalType": "address",
          "name": "previousOwner",
          "type": "address"
        },
        {
          "indexed": true,
          "internalType": "address",
          "name": "newOwner",
          "type": "address"
        }
      ],
      "name": "OwnershipTransferred",
      "type": "event"
    },
    {
      "anonymous": false,
      "inputs": [
        {
          "indexed": true,
          "internalType": "address",
          "name": "user",
          "type": "address"
        },
        {
          "indexed": false,
          "internalType": "uint256",
          "name": "amount",
          "type": "uint256"
        }
      ],
      "name": "Withdraw",
      "type": "event"
    },
    {
      "inputs": [],
      "name": "bonusEndBlock",
      "outputs": [
        {
          "internalType": "uint256",
          "name": "",
          "type": "uint256"
        }
      ],
      "stateMutability": "view",
      "type": "function"
    },
    {
      "inputs": [],
      "name": "owner",
      "outputs": [
        {
          "internalType": "address",
          "name": "",
          "type": "address"
        }
      ],
      "stateMutability": "view",
      "type": "function"
    },
    {
      "inputs": [
        {
          "internalType": "uint256",
          "name": "",
          "type": "uint256"
        }
      ],
      "name": "poolInfo",
      "outputs": [
        {
          "internalType": "contract IBEP20",
          "name": "lpToken",
          "type": "address"
        },
        {
          "internalType": "uint256",
          "name": "allocPoint",
          "type": "uint256"
        },
        {
          "internalType": "uint256",
          "name": "lastRewardBlock",
          "type": "uint256"
        },
        {
          "internalType": "uint256",
          "name": "accRewardTokenPerShare",
          "type": "uint256"
        }
      ],
      "stateMutability": "view",
      "type": "function"
    },
    {
      "inputs": [],
      "name": "renounceOwnership",
      "outputs": [],
      "stateMutability": "nonpayable",
      "type": "function"
    },
    {
      "inputs": [],
      "name": "rewardPerBlock",
      "outputs": [
        {
          "internalType": "uint256",
          "name": "",
          "type": "uint256"
        }
      ],
      "stateMutability": "view",
      "type": "function"
    },
    {
      "inputs": [],
      "name": "rewardToken",
      "outputs": [
        {
          "internalType": "contract IBEP20",
          "name": "",
          "type": "address"
        }
      ],
      "stateMutability": "view",
      "type": "function"
    },
    {
      "inputs": [],
      "name": "stakeToken",
      "outputs": [
        {
          "internalType": "contract IBEP20",
          "name": "",
          "type": "address"
        }
      ],
      "stateMutability": "view",
      "type": "function"
    },
    {
      "inputs": [],
      "name": "startBlock",
      "outputs": [
        {
          "internalType": "uint256",
          "name": "",
          "type": "uint256"
        }
      ],
      "stateMutability": "view",
      "type": "function"
    },
    {
      "inputs": [
        {
          "internalType": "address",
          "name": "newOwner",
          "type": "address"
        }
      ],
      "name": "transferOwnership",
      "outputs": [],
      "stateMutability": "nonpayable",
      "type": "function"
    },
    {
      "inputs": [
        {
          "internalType": "address",
          "name": "",
          "type": "address"
        }
      ],
      "name": "userInfo",
      "outputs": [
        {
          "internalType": "uint256",
          "name": "amount",
          "type": "uint256"
        },
        {
          "internalType": "uint256",
          "name": "rewardDebt",
          "type": "uint256"
        }
      ],
      "stateMutability": "view",
      "type": "function"
    },
    {
      "inputs": [
        {
          "internalType": "uint256",
          "name": "_from",
          "type": "uint256"
        },
        {
          "internalType": "uint256",
          "name": "_to",
          "type": "uint256"
        }
      ],
      "name": "getMultiplier",
      "outputs": [
        {
          "internalType": "uint256",
          "name": "",
          "type": "uint256"
        }
      ],
      "stateMutability": "view",
      "type": "function"
    },
    {
      "inputs": [
        {
          "internalType": "address",
          "name": "_user",
          "type": "address"
        }
      ],
      "name": "pendingReward",
      "outputs": [
        {
          "internalType": "uint256",
          "name": "",
          "type": "uint256"
        }
      ],
      "stateMutability": "view",
      "type": "function"
    },
    {
      "inputs": [
        {
          "internalType": "uint256",
          "name": "_pid",
          "type": "uint256"
        }
      ],
      "name": "updatePool",
      "outputs": [],
      "stateMutability": "nonpayable",
      "type": "function"
    },
    {
      "inputs": [],
      "name": "massUpdatePools",
      "outputs": [],
      "stateMutability": "nonpayable",
      "type": "function"
    },
    {
      "inputs": [
        {
          "internalType": "uint256",
          "name": "_amount",
          "type": "uint256"
        }
      ],
      "name": "deposit",
      "outputs": [],
      "stateMutability": "nonpayable",
      "type": "function"
    },
    {
      "inputs": [
        {
          "internalType": "uint256",
          "name": "_amount",
          "type": "uint256"
        }
      ],
      "name": "withdraw",
      "outputs": [],
      "stateMutability": "nonpayable",
      "type": "function"
    },
    {
      "inputs": [],
      "name": "rewardBalance",
      "outputs": [
        {
          "internalType": "uint256",
          "name": "",
          "type": "uint256"
        }
      ],
      "stateMutability": "view",
      "type": "function"
    },
    {
      "inputs": [
        {
          "internalType": "uint256",
          "name": "_amount",
          "type": "uint256"
        }
      ],
      "name": "depositRewards",
      "outputs": [],
      "stateMutability": "nonpayable",
      "type": "function"
    },
    {
      "inputs": [],
      "name": "emergencyWithdraw",
      "outputs": [],
      "stateMutability": "nonpayable",
      "type": "function"
    },
    {
      "inputs": [
        {
          "internalType": "uint256",
          "name": "_amount",
          "type": "uint256"
        }
      ],
      "name": "emergencyRewardWithdraw",
      "outputs": [],
      "stateMutability": "nonpayable",
      "type": "function"
    }
  ],
  "bytecode": "0x6080604052600060065534801561001557600080fd5b506040516115fe3803806115fe833981810160405260a081101561003857600080fd5b5080516020820151604083015160608401516080909401519293919290919060006100616101d1565b600080546001600160a01b0319166001600160a01b0383169081178255604051929350917f8be0079c531659141344cd1fd0a4f28419497f9722a3daafe3b4186f6b6457e0908290a350600180546001600160a01b039687166001600160a01b03199182168117835560028054978916978316979097179096556003949094556007839055600891909155604080516080810182529485526103e86020860181815291860193845260006060870181815260048054958601815591829052965193027f8a35acfbc15ff81a39ae7d344fd709f28e8600b4aa8c65c6b64bfe7fe36bd19b8101805494909816939095169290921790955593517f8a35acfbc15ff81a39ae7d344fd709f28e8600b4aa8c65c6b64bfe7fe36bd19c830155517f8a35acfbc15ff81a39ae7d344fd709f28e8600b4aa8c65c6b64bfe7fe36bd19d82015590517f8a35acfbc15ff81a39ae7d344fd709f28e8600b4aa8c65c6b64bfe7fe36bd19e909101556006556101d5565b3390565b61141a806101e46000396000f3fe608060405234801561001057600080fd5b506004361061012c5760003560e01c80638ae39cac116100ad578063b6b55f2511610071578063b6b55f25146102c4578063db2e21bc146102e1578063f2fde38b146102e9578063f40f0f521461030f578063f7c618c1146103355761012c565b80638ae39cac1461026c5780638bdf67f2146102745780638da5cb5b146102915780638dbb1e3a14610299578063aa5c3ab4146102bc5761012c565b806348cd4cb1116100f457806348cd4cb11461021357806351eb05a61461021b57806351ed6a3014610238578063630b5ba11461025c578063715018a6146102645761012c565b80631526fe27146101315780631959a0021461017e5780631aed6553146101bd5780632e1a7d4d146101d75780633279beab146101f6575b600080fd5b61014e6004803603602081101561014757600080fd5b503561033d565b604080516001600160a01b0390951685526020850193909352838301919091526060830152519081900360800190f35b6101a46004803603602081101561019457600080fd5b50356001600160a01b031661037e565b6040805192835260208301919091528051918290030190f35b6101c5610397565b60408051918252519081900360200190f35b6101f4600480360360208110156101ed57600080fd5b503561039d565b005b6101f46004803603602081101561020c57600080fd5b5035610520565b6101c561061e565b6101f46004803603602081101561023157600080fd5b5035610624565b610240610754565b604080516001600160a01b039092168252519081900360200190f35b6101f4610763565b6101f4610786565b6101c561083a565b6101f46004803603602081101561028a57600080fd5b5035610840565b6102406108cd565b6101c5600480360360408110156102af57600080fd5b50803590602001356108dc565b6101c561091c565b6101f4600480360360208110156102da57600080fd5b5035610998565b6101f4610acb565b6101f4600480360360208110156102ff57600080fd5b50356001600160a01b0316610b5e565b6101c56004803603602081101561032557600080fd5b50356001600160a01b0316610bd1565b610240610d29565b6004818154811061034a57fe5b600091825260209091206004909102018054600182015460028301546003909301546001600160a01b039092169350919084565b6005602052600090815260409020805460019091015482565b60085481565b600060046000815481106103ad57fe5b6000918252602080832033845260059091526040909220805460049092029092019250831115610419576040805162461bcd60e51b81526020600482015260126024820152711dda5d1a191c985dce881b9bdd0819dbdbd960721b604482015290519081900360640190fd5b6104236000610624565b600061045d826001015461045764e8d4a5100061045187600301548760000154610d3890919063ffffffff16565b90610d98565b90610dda565b9050801561049a57600061046f61091c565b90508015610498578082111561048e576104893382610e1c565b610498565b6104983383610e1c565b505b83156104c45781546104ac9085610dda565b825582546104c4906001600160a01b03163386610e2f565b600383015482546104df9164e8d4a510009161045191610d38565b600183015560408051858152905133917f884edad9ce6fa2440d8a54cc123490eb96d2768479d49ff9c7366125a9424364919081900360200190a250505050565b610528610e86565b6000546001600160a01b0390811691161461058a576040805162461bcd60e51b815260206004820181905260248201527f4f776e61626c653a2063616c6c6572206973206e6f7420746865206f776e6572604482015290519081900360640190fd5b61059261091c565b8111156105db576040805162461bcd60e51b81526020600482015260126024820152716e6f7420656e6f756768207265776172647360701b604482015290519081900360640190fd5b6105e53382610e1c565b60408051828152905133917f2d4434bb59801e733e9ce3df40b0c5518861a5fcdeec1906e83e03c755872b42919081900360200190a250565b60075481565b60006004828154811061063357fe5b90600052602060002090600402019050806002015443116106545750610751565b8054604080516370a0823160e01b815230600482015290516000926001600160a01b0316916370a08231916024808301926020929190829003018186803b15801561069e57600080fd5b505afa1580156106b2573d6000803e3d6000fd5b505050506040513d60208110156106c857600080fd5b50519050806106de575043600290910155610751565b60006106ee8360020154436108dc565b9050600061071b600654610451866001015461071560035487610d3890919063ffffffff16565b90610d38565b905061073e610733846104518464e8d4a51000610d38565b600386015490610e8a565b6003850155505043600290920191909155505b50565b6001546001600160a01b031681565b60045460005b818110156107825761077a81610624565b600101610769565b5050565b61078e610e86565b6000546001600160a01b039081169116146107f0576040805162461bcd60e51b815260206004820181905260248201527f4f776e61626c653a2063616c6c6572206973206e6f7420746865206f776e6572604482015290519081900360640190fd5b600080546040516001600160a01b03909116907f8be0079c531659141344cd1fd0a4f28419497f9722a3daafe3b4186f6b6457e0908390a3600080546001600160a01b0319169055565b60035481565b6000811161087f5760405162461bcd60e51b81526004018080602001828103825260258152602001806113c06025913960400191505060405180910390fd5b600254610897906001600160a01b0316333084610ee4565b6040805182815290517f754fe3a3c69256b66ca56365fda4bbf3299d7c94038c105ffd43fb4b37f56db69181900360200190a150565b6000546001600160a01b031690565b600060085482116108f8576108f18284610dda565b9050610916565b600854831061090957506000610916565b6008546108f19084610dda565b92915050565b600254604080516370a0823160e01b815230600482015290516000926001600160a01b0316916370a08231916024808301926020929190829003018186803b15801561096757600080fd5b505afa15801561097b573d6000803e3d6000fd5b505050506040513d602081101561099157600080fd5b5051905090565b600060046000815481106109a857fe5b600091825260208083203384526005909152604083206004909202019250906109d090610624565b805415610a44576000610a05826001015461045764e8d4a5100061045187600301548760000154610d3890919063ffffffff16565b90508015610a42576000610a1761091c565b90508015610a405780821115610a3657610a313382610e1c565b610a40565b610a403383610e1c565b505b505b8215610a70578154610a61906001600160a01b0316333086610ee4565b8054610a6d9084610e8a565b81555b60038201548154610a8b9164e8d4a510009161045191610d38565b600182015560408051848152905133917fe1fffcc4923d04b559f4d29a8bfc6cda04eb5b0d3c460751c2402c5c5cc9109c919081900360200190a2505050565b60006004600081548110610adb57fe5b600091825260208083203380855260059092526040909320805460049093029093018054909450610b19926001600160a01b03919091169190610e2f565b600080825560018201819055604080519182525133917f5fafa99d0643513820be26656b45130b01e1c03062e1266bf36f88cbd3bd9695919081900360200190a25050565b610b66610e86565b6000546001600160a01b03908116911614610bc8576040805162461bcd60e51b815260206004820181905260248201527f4f776e61626c653a2063616c6c6572206973206e6f7420746865206f776e6572604482015290519081900360640190fd5b61075181610f44565b6000806004600081548110610be257fe5b600091825260208083206001600160a01b03878116855260058352604080862060049586029093016003810154815483516370a0823160e01b81523098810198909852925191985093969395939491909216926370a082319260248083019392829003018186803b158015610c5657600080fd5b505afa158015610c6a573d6000803e3d6000fd5b505050506040513d6020811015610c8057600080fd5b5051600285015490915043118015610c9757508015155b15610cf7576000610cac8560020154436108dc565b90506000610cd3600654610451886001015461071560035487610d3890919063ffffffff16565b9050610cf2610ceb846104518464e8d4a51000610d38565b8590610e8a565b935050505b610d1f836001015461045764e8d4a51000610451868860000154610d3890919063ffffffff16565b9695505050505050565b6002546001600160a01b031681565b600082610d4757506000610916565b82820282848281610d5457fe5b0414610d915760405162461bcd60e51b815260040180806020018281038252602181526020018061139f6021913960400191505060405180910390fd5b9392505050565b6000610d9183836040518060400160405280601a81526020017f536166654d6174683a206469766973696f6e206279207a65726f000000000000815250610fe4565b6000610d9183836040518060400160405280601e81526020017f536166654d6174683a207375627472616374696f6e206f766572666c6f770000815250611086565b600254610782906001600160a01b031683835b604080516001600160a01b038416602482015260448082018490528251808303909101815260649091019091526020810180516001600160e01b031663a9059cbb60e01b179052610e819084906110e0565b505050565b3390565b600082820183811015610d91576040805162461bcd60e51b815260206004820152601b60248201527f536166654d6174683a206164646974696f6e206f766572666c6f770000000000604482015290519081900360640190fd5b604080516001600160a01b0380861660248301528416604482015260648082018490528251808303909101815260849091019091526020810180516001600160e01b03166323b872dd60e01b179052610f3e9085906110e0565b50505050565b6001600160a01b038116610f895760405162461bcd60e51b81526004018080602001828103825260268152602001806113796026913960400191505060405180910390fd5b600080546040516001600160a01b03808516939216917f8be0079c531659141344cd1fd0a4f28419497f9722a3daafe3b4186f6b6457e091a3600080546001600160a01b0319166001600160a01b0392909216919091179055565b600081836110705760405162461bcd60e51b81526004018080602001828103825283818151815260200191508051906020019080838360005b8381101561103557818101518382015260200161101d565b50505050905090810190601f1680156110625780820380516001836020036101000a031916815260200191505b509250505060405180910390fd5b50600083858161107c57fe5b0495945050505050565b600081848411156110d85760405162461bcd60e51b815260206004820181815283516024840152835190928392604490910191908501908083836000831561103557818101518382015260200161101d565b505050900390565b6060611135826040518060400160405280602081526020017f5361666542455032303a206c6f772d6c6576656c2063616c6c206661696c6564815250856001600160a01b03166111919092919063ffffffff16565b805190915015610e815780806020019051602081101561115457600080fd5b5051610e815760405162461bcd60e51b815260040180806020018281038252602a81526020018061134f602a913960400191505060405180910390fd5b60606111a084846000856111a8565b949350505050565b60606111b385611315565b611204576040805162461bcd60e51b815260206004820152601d60248201527f416464726573733a2063616c6c20746f206e6f6e2d636f6e7472616374000000604482015290519081900360640190fd5b60006060866001600160a01b031685876040518082805190602001908083835b602083106112435780518252601f199092019160209182019101611224565b6001836020036101000a03801982511681845116808217855250505050505090500191505060006040518083038185875af1925050503d80600081146112a5576040519150601f19603f3d011682016040523d82523d6000602084013e6112aa565b606091505b509150915081156112be5791506111a09050565b8051156112ce5780518082602001fd5b60405162461bcd60e51b815260206004820181815286516024840152865187939192839260440191908501908083836000831561103557818101518382015260200161101d565b6000813f7fc5d2460186f7233c927e7db2dcc703c0e500b653ca82273b7bfad8045d85a4708181148015906111a057505015159291505056fe5361666542455032303a204245503230206f7065726174696f6e20646964206e6f7420737563636565644f776e61626c653a206e6577206f776e657220697320746865207a65726f2061646472657373536166654d6174683a206d756c7469706c69636174696f6e206f766572666c6f774465706f7369742076616c7565206d7573742062652067726561746572207468616e20302ea2646970667358221220c662189fd53bca4a0d002e23eb354afe3235735f911f39de2cabe06e80e6205264736f6c634300060c0033",
  "immutableReferences": {},
  "source": "pragma solidity 0.6.12;\n\nimport '@pancakeswap/pancake-swap-lib/contracts/math/SafeMath.sol';\nimport '@pancakeswap/pancake-swap-lib/contracts/token/BEP20/IBEP20.sol';\nimport '@pancakeswap/pancake-swap-lib/contracts/token/BEP20/SafeBEP20.sol';\nimport '@pancakeswap/pancake-swap-lib/contracts/access/Ownable.sol';\n\n\ncontract BEP20RewardBalance is Ownable {\n    using SafeMath for uint256;\n    using SafeBEP20 for IBEP20;\n\n    // Info of each user.\n    struct UserInfo {\n        uint256 amount;     // How many LP tokens the user has provided.\n        uint256 rewardDebt; // Reward debt. See explanation below.\n    }\n\n    // Info of each pool.\n    struct PoolInfo {\n        IBEP20 lpToken;           // Address of LP token contract.\n        uint256 allocPoint;       // How many allocation points assigned to this pool. Rewards to distribute per block.\n        uint256 lastRewardBlock;  // Last block number that Rewards distribution occurs.\n        uint256 accRewardTokenPerShare; // Accumulated Rewards per share, times 1e12. See below.\n    }\n\n    // The stake token\n    IBEP20 public stakeToken;\n    // The reward token\n    IBEP20 public rewardToken;\n\n    // Reward tokens created per block.\n    uint256 public rewardPerBlock;\n\n\n    // Info of each pool.\n    PoolInfo[] public poolInfo;\n    // Info of each user that stakes LP tokens.\n    mapping (address => UserInfo) public userInfo;\n    // Total allocation poitns. Must be the sum of all allocation points in all pools.\n    uint256 private totalAllocPoint = 0;\n    // The block number when Reward mining starts.\n    uint256 public startBlock;\n\t// The block number when mining ends.\t\n    uint256 public bonusEndBlock;\n\n    event Deposit(address indexed user, uint256 amount);\n    event DepositRewards(uint256 amount);\n    event Withdraw(address indexed user, uint256 amount);\n    event EmergencyWithdraw(address indexed user, uint256 amount);\n    event EmergencyRewardWithdraw(address indexed user, uint256 amount);\n\n    constructor(\n        IBEP20 _stakeToken,\n        IBEP20 _rewardToken,\n        uint256 _rewardPerBlock,\n        uint256 _startBlock,\n        uint256 _bonusEndBlock\n    ) public {\n        stakeToken = _stakeToken;\n        rewardToken = _rewardToken;\n        rewardPerBlock = _rewardPerBlock;\n        startBlock = _startBlock;\n        bonusEndBlock = _bonusEndBlock;\n\n        // staking pool\n        poolInfo.push(PoolInfo({\n            lpToken: _stakeToken,\n            allocPoint: 1000,\n            lastRewardBlock: startBlock,\n            accRewardTokenPerShare: 0\n        }));\n\n        totalAllocPoint = 1000;\n\n    }\n\n    // Return reward multiplier over the given _from to _to block.\n    function getMultiplier(uint256 _from, uint256 _to) public view returns (uint256) {\n        if (_to <= bonusEndBlock) {\n            return _to.sub(_from);\n        } else if (_from >= bonusEndBlock) {\n            return 0;\n        } else {\n            return bonusEndBlock.sub(_from);\n        }\n    }\n\n    // View function to see pending Reward on frontend.\n    function pendingReward(address _user) external view returns (uint256) {\n        PoolInfo storage pool = poolInfo[0];\n        UserInfo storage user = userInfo[_user];\n        uint256 accRewardTokenPerShare = pool.accRewardTokenPerShare;\n        uint256 lpSupply = pool.lpToken.balanceOf(address(this));\n        if (block.number > pool.lastRewardBlock && lpSupply != 0) {\n            uint256 multiplier = getMultiplier(pool.lastRewardBlock, block.number);\n            uint256 tokenReward = multiplier.mul(rewardPerBlock).mul(pool.allocPoint).div(totalAllocPoint);\n            accRewardTokenPerShare = accRewardTokenPerShare.add(tokenReward.mul(1e12).div(lpSupply));\n        }\n        return user.amount.mul(accRewardTokenPerShare).div(1e12).sub(user.rewardDebt);\n    }\n\n    // Update reward variables of the given pool to be up-to-date.\n    function updatePool(uint256 _pid) public {\n        PoolInfo storage pool = poolInfo[_pid];\n        if (block.number <= pool.lastRewardBlock) {\n            return;\n        }\n        uint256 lpSupply = pool.lpToken.balanceOf(address(this));\n        if (lpSupply == 0) {\n            pool.lastRewardBlock = block.number;\n            return;\n        }\n        uint256 multiplier = getMultiplier(pool.lastRewardBlock, block.number);\n        uint256 tokenReward = multiplier.mul(rewardPerBlock).mul(pool.allocPoint).div(totalAllocPoint);\n        pool.accRewardTokenPerShare = pool.accRewardTokenPerShare.add(tokenReward.mul(1e12).div(lpSupply));\n        pool.lastRewardBlock = block.number;\n    }\n\n    // Update reward variables for all pools. Be careful of gas spending!\n    function massUpdatePools() public {\n        uint256 length = poolInfo.length;\n        for (uint256 pid = 0; pid < length; ++pid) {\n            updatePool(pid);\n        }\n    }\n\n\n    /// Deposit staking token into the contract to earn rewards. \n    /// @dev Since this contract needs to be supplied with rewards we are \n    ///  sending the balance of the contract if the pending rewards are higher\n    /// @param _amount The amount of staking tokens to deposit\n    function deposit(uint256 _amount) public {\n        PoolInfo storage pool = poolInfo[0];\n        UserInfo storage user = userInfo[msg.sender];\n        updatePool(0);\n        if (user.amount > 0) {\n            uint256 pending = user.amount.mul(pool.accRewardTokenPerShare).div(1e12).sub(user.rewardDebt);\n            if(pending > 0) {\n                uint256 currentRewardBalance = rewardBalance();\n                if(currentRewardBalance > 0) {\n                    if(pending > currentRewardBalance) {\n                        safeTransferReward(address(msg.sender), currentRewardBalance);\n                    } else {\n                        safeTransferReward(address(msg.sender), pending);\n                    }\n                }\n            }\n        }\n        if(_amount > 0) {\n            pool.lpToken.safeTransferFrom(address(msg.sender), address(this), _amount);\n            user.amount = user.amount.add(_amount);\n        }\n        user.rewardDebt = user.amount.mul(pool.accRewardTokenPerShare).div(1e12);\n\n        emit Deposit(msg.sender, _amount);\n    }\n\n    /// Withdraw rewards and/or staked tokens. Pass a 0 amount to withdraw only rewards \n    /// @param _amount The amount of staking tokens to withdraw\n    function withdraw(uint256 _amount) public {\n        PoolInfo storage pool = poolInfo[0];\n        UserInfo storage user = userInfo[msg.sender];\n        require(user.amount >= _amount, \"withdraw: not good\");\n        updatePool(0);\n        uint256 pending = user.amount.mul(pool.accRewardTokenPerShare).div(1e12).sub(user.rewardDebt);\n        if(pending > 0) {\n            uint256 currentRewardBalance = rewardBalance();\n            if(currentRewardBalance > 0) {\n                if(pending > currentRewardBalance) {\n                    safeTransferReward(address(msg.sender), currentRewardBalance);\n                } else {\n                    safeTransferReward(address(msg.sender), pending);\n                }\n            }\n        }\n        if(_amount > 0) {\n            user.amount = user.amount.sub(_amount);\n            pool.lpToken.safeTransfer(address(msg.sender), _amount);\n        }\n\n        user.rewardDebt = user.amount.mul(pool.accRewardTokenPerShare).div(1e12);\n\n        emit Withdraw(msg.sender, _amount);\n    }\n\n    /// Obtain the reward balance of this contract\n    /// @return wei balace of conract\n    function rewardBalance() public view returns (uint256) {\n        return rewardToken.balanceOf(address(this));\n    }\n\n    // Deposit Rewards into contract\n    function depositRewards(uint256 _amount) external {\n        require(_amount > 0, 'Deposit value must be greater than 0.');\n        rewardToken.safeTransferFrom(address(msg.sender), address(this), _amount);\n        emit DepositRewards(_amount);\n    }\n\n    /// @param _to address to send reward token to\n    /// @param _amount value of reward token to transfer\n    function safeTransferReward(address _to, uint256 _amount) internal {\n        rewardToken.safeTransfer(_to, _amount);\n    }\n\n    /* Emergency Functions */ \n\n    // Withdraw without caring about rewards. EMERGENCY ONLY.\n    function emergencyWithdraw() external {\n        PoolInfo storage pool = poolInfo[0];\n        UserInfo storage user = userInfo[msg.sender];\n        pool.lpToken.safeTransfer(address(msg.sender), user.amount);\n        user.amount = 0;\n        user.rewardDebt = 0;\n        emit EmergencyWithdraw(msg.sender, user.amount);\n    }\n\n    // Withdraw reward. EMERGENCY ONLY.\n    function emergencyRewardWithdraw(uint256 _amount) external onlyOwner {\n        require(_amount <= rewardBalance(), 'not enough rewards');\n        // Withdraw rewards\n        safeTransferReward(address(msg.sender), _amount);\n        emit EmergencyRewardWithdraw(msg.sender, _amount);\n    }\n\n}",
  "sourcePath": "C:\\Users\\OmrElibol\\OneDrive\\Masast\\BalanceContractRevise\\contracts\\BEP20RewardBalance.sol",
  "compiler": {
    "name": "solc",
    "version": "0.6.12+commit.27d51765.Emscripten.clang"
  },
  "schemaVersion": "3.4.10",
  "updatedAt": "2022-10-03T08:13:26.892Z",
  "devdoc": {
    "kind": "dev",
    "methods": {
      "deposit(uint256)": {
        "details": "Since this contract needs to be supplied with rewards we are   sending the balance of the contract if the pending rewards are higher",
        "params": {
          "_amount": "The amount of staking tokens to deposit"
        }
      },
      "owner()": {
        "details": "Returns the address of the current owner."
      },
      "renounceOwnership()": {
        "details": "Leaves the contract without owner. It will not be possible to call `onlyOwner` functions anymore. Can only be called by the current owner. NOTE: Renouncing ownership will leave the contract without an owner, thereby removing any functionality that is only available to the owner."
      },
      "rewardBalance()": {
        "returns": {
          "_0": "wei balace of conract"
        }
      },
      "transferOwnership(address)": {
        "details": "Transfers ownership of the contract to a new account (`newOwner`). Can only be called by the current owner."
      },
      "withdraw(uint256)": {
        "params": {
          "_amount": "The amount of staking tokens to withdraw"
        }
      }
    },
    "version": 1
  },
  "userdoc": {
    "kind": "user",
    "methods": {
      "deposit(uint256)": {
        "notice": "Deposit staking token into the contract to earn rewards. "
      },
      "rewardBalance()": {
        "notice": "Obtain the reward balance of this contract"
      },
      "withdraw(uint256)": {
        "notice": "Withdraw rewards and/or staked tokens. Pass a 0 amount to withdraw only rewards "
      }
    },
    "version": 1
  }
}