{
  "contractName": "BNBRewardBalance",
  "abi": [
    {
      "inputs": [
        {
          "internalType": "contract IBEP20",
          "name": "_stakeToken",
          "type": "address"
        },
        {
          "internalType": "uint256",
          "name": "_rewardPerBlock",
          "type": "uint256"
        },
        {
          "internalType": "uint256",
          "name": "_startBlock",
          "type": "uint256"
        },
        {
          "internalType": "uint256",
          "name": "_bonusEndBlock",
          "type": "uint256"
        }
      ],
      "stateMutability": "nonpayable",
      "type": "constructor"
    },
    {
      "anonymous": false,
      "inputs": [
        {
          "indexed": true,
          "internalType": "address",
          "name": "user",
          "type": "address"
        },
        {
          "indexed": false,
          "internalType": "uint256",
          "name": "amount",
          "type": "uint256"
        }
      ],
      "name": "Deposit",
      "type": "event"
    },
    {
      "anonymous": false,
      "inputs": [
        {
          "indexed": false,
          "internalType": "uint256",
          "name": "amount",
          "type": "uint256"
        }
      ],
      "name": "DepositBNBRewards",
      "type": "event"
    },
    {
      "anonymous": false,
      "inputs": [
        {
          "indexed": true,
          "internalType": "address",
          "name": "user",
          "type": "address"
        },
        {
          "indexed": false,
          "internalType": "uint256",
          "name": "amount",
          "type": "uint256"
        }
      ],
      "name": "EmergencyRewardWithdraw",
      "type": "event"
    },
    {
      "anonymous": false,
      "inputs": [
        {
          "indexed": true,
          "internalType": "address",
          "name": "user",
          "type": "address"
        },
        {
          "indexed": false,
          "internalType": "uint256",
          "name": "amount",
          "type": "uint256"
        }
      ],
      "name": "EmergencyWithdraw",
      "type": "event"
    },
    {
      "anonymous": false,
      "inputs": [
        {
          "indexed": true,
          "internalType": "address",
          "name": "previousOwner",
          "type": "address"
        },
        {
          "indexed": true,
          "internalType": "address",
          "name": "newOwner",
          "type": "address"
        }
      ],
      "name": "OwnershipTransferred",
      "type": "event"
    },
    {
      "anonymous": false,
      "inputs": [
        {
          "indexed": true,
          "internalType": "address",
          "name": "user",
          "type": "address"
        },
        {
          "indexed": false,
          "internalType": "uint256",
          "name": "amount",
          "type": "uint256"
        }
      ],
      "name": "Withdraw",
      "type": "event"
    },
    {
      "inputs": [],
      "name": "bonusEndBlock",
      "outputs": [
        {
          "internalType": "uint256",
          "name": "",
          "type": "uint256"
        }
      ],
      "stateMutability": "view",
      "type": "function"
    },
    {
      "inputs": [],
      "name": "owner",
      "outputs": [
        {
          "internalType": "address",
          "name": "",
          "type": "address"
        }
      ],
      "stateMutability": "view",
      "type": "function"
    },
    {
      "inputs": [
        {
          "internalType": "uint256",
          "name": "",
          "type": "uint256"
        }
      ],
      "name": "poolInfo",
      "outputs": [
        {
          "internalType": "contract IBEP20",
          "name": "lpToken",
          "type": "address"
        },
        {
          "internalType": "uint256",
          "name": "allocPoint",
          "type": "uint256"
        },
        {
          "internalType": "uint256",
          "name": "lastRewardBlock",
          "type": "uint256"
        },
        {
          "internalType": "uint256",
          "name": "accRewardTokenPerShare",
          "type": "uint256"
        }
      ],
      "stateMutability": "view",
      "type": "function"
    },
    {
      "inputs": [],
      "name": "renounceOwnership",
      "outputs": [],
      "stateMutability": "nonpayable",
      "type": "function"
    },
    {
      "inputs": [],
      "name": "rewardPerBlock",
      "outputs": [
        {
          "internalType": "uint256",
          "name": "",
          "type": "uint256"
        }
      ],
      "stateMutability": "view",
      "type": "function"
    },
    {
      "inputs": [],
      "name": "stakeToken",
      "outputs": [
        {
          "internalType": "contract IBEP20",
          "name": "",
          "type": "address"
        }
      ],
      "stateMutability": "view",
      "type": "function"
    },
    {
      "inputs": [],
      "name": "startBlock",
      "outputs": [
        {
          "internalType": "uint256",
          "name": "",
          "type": "uint256"
        }
      ],
      "stateMutability": "view",
      "type": "function"
    },
    {
      "inputs": [
        {
          "internalType": "address",
          "name": "newOwner",
          "type": "address"
        }
      ],
      "name": "transferOwnership",
      "outputs": [],
      "stateMutability": "nonpayable",
      "type": "function"
    },
    {
      "inputs": [
        {
          "internalType": "address",
          "name": "",
          "type": "address"
        }
      ],
      "name": "userInfo",
      "outputs": [
        {
          "internalType": "uint256",
          "name": "amount",
          "type": "uint256"
        },
        {
          "internalType": "uint256",
          "name": "rewardDebt",
          "type": "uint256"
        }
      ],
      "stateMutability": "view",
      "type": "function"
    },
    {
      "inputs": [
        {
          "internalType": "uint256",
          "name": "_from",
          "type": "uint256"
        },
        {
          "internalType": "uint256",
          "name": "_to",
          "type": "uint256"
        }
      ],
      "name": "getMultiplier",
      "outputs": [
        {
          "internalType": "uint256",
          "name": "",
          "type": "uint256"
        }
      ],
      "stateMutability": "view",
      "type": "function"
    },
    {
      "inputs": [
        {
          "internalType": "address",
          "name": "_user",
          "type": "address"
        }
      ],
      "name": "pendingReward",
      "outputs": [
        {
          "internalType": "uint256",
          "name": "",
          "type": "uint256"
        }
      ],
      "stateMutability": "view",
      "type": "function"
    },
    {
      "inputs": [
        {
          "internalType": "uint256",
          "name": "_pid",
          "type": "uint256"
        }
      ],
      "name": "updatePool",
      "outputs": [],
      "stateMutability": "nonpayable",
      "type": "function"
    },
    {
      "inputs": [],
      "name": "massUpdatePools",
      "outputs": [],
      "stateMutability": "nonpayable",
      "type": "function"
    },
    {
      "inputs": [
        {
          "internalType": "uint256",
          "name": "_amount",
          "type": "uint256"
        }
      ],
      "name": "deposit",
      "outputs": [],
      "stateMutability": "nonpayable",
      "type": "function"
    },
    {
      "inputs": [
        {
          "internalType": "uint256",
          "name": "_amount",
          "type": "uint256"
        }
      ],
      "name": "withdraw",
      "outputs": [],
      "stateMutability": "nonpayable",
      "type": "function"
    },
    {
      "inputs": [],
      "name": "rewardBalance",
      "outputs": [
        {
          "internalType": "uint256",
          "name": "",
          "type": "uint256"
        }
      ],
      "stateMutability": "view",
      "type": "function"
    },
    {
      "inputs": [],
      "name": "depositBNBRewards",
      "outputs": [],
      "stateMutability": "payable",
      "type": "function"
    },
    {
      "inputs": [],
      "name": "emergencyWithdraw",
      "outputs": [],
      "stateMutability": "nonpayable",
      "type": "function"
    },
    {
      "inputs": [
        {
          "internalType": "uint256",
          "name": "_amount",
          "type": "uint256"
        }
      ],
      "name": "emergencyRewardWithdraw",
      "outputs": [],
      "stateMutability": "nonpayable",
      "type": "function"
    }
  ],
  "bytecode": "0x6080604052600060055534801561001557600080fd5b506040516116a63803806116a68339818101604052608081101561003857600080fd5b508051602082015160408301516060909301519192909160006100596101ba565b600080546001600160a01b0319166001600160a01b0383169081178255604051929350917f8be0079c531659141344cd1fd0a4f28419497f9722a3daafe3b4186f6b6457e0908290a350600180546001600160a01b03199081166001600160a01b0396871690811783556002959095556006849055600792909255604080516080810182529485526103e86020860181815291860194855260006060870181815260038054958601815590915295517fc2575a0e9e593c00f959f8c92f12db2869c3395a3b0502d05e2516446f71f85b6004909402938401805490951697169690961790925590517fc2575a0e9e593c00f959f8c92f12db2869c3395a3b0502d05e2516446f71f85c82015590517fc2575a0e9e593c00f959f8c92f12db2869c3395a3b0502d05e2516446f71f85d82015590517fc2575a0e9e593c00f959f8c92f12db2869c3395a3b0502d05e2516446f71f85e909101556005556101be565b3390565b6114d9806101cd6000396000f3fe6080604052600436106101145760003560e01c8063715018a6116100a0578063b6b55f2511610064578063b6b55f2514610345578063db2e21bc1461036f578063e0de16e514610384578063f2fde38b1461038c578063f40f0f52146103bf57610114565b8063715018a6146102c15780638ae39cac146102d65780638da5cb5b146102eb5780638dbb1e3a14610300578063aa5c3ab41461033057610114565b80633279beab116100e75780633279beab1461021257806348cd4cb11461023c57806351eb05a61461025157806351ed6a301461027b578063630b5ba1146102ac57610114565b80631526fe27146101195780631959a002146101735780631aed6553146101bf5780632e1a7d4d146101e6575b600080fd5b34801561012557600080fd5b506101436004803603602081101561013c57600080fd5b50356103f2565b604080516001600160a01b0390951685526020850193909352838301919091526060830152519081900360800190f35b34801561017f57600080fd5b506101a66004803603602081101561019657600080fd5b50356001600160a01b0316610433565b6040805192835260208301919091528051918290030190f35b3480156101cb57600080fd5b506101d461044c565b60408051918252519081900360200190f35b3480156101f257600080fd5b506102106004803603602081101561020957600080fd5b5035610452565b005b34801561021e57600080fd5b506102106004803603602081101561023557600080fd5b50356105d5565b34801561024857600080fd5b506101d46106d3565b34801561025d57600080fd5b506102106004803603602081101561027457600080fd5b50356106d9565b34801561028757600080fd5b50610290610809565b604080516001600160a01b039092168252519081900360200190f35b3480156102b857600080fd5b50610210610818565b3480156102cd57600080fd5b5061021061083b565b3480156102e257600080fd5b506101d46108ef565b3480156102f757600080fd5b506102906108f5565b34801561030c57600080fd5b506101d46004803603604081101561032357600080fd5b5080359060200135610904565b34801561033c57600080fd5b506101d4610944565b34801561035157600080fd5b506102106004803603602081101561036857600080fd5b5035610949565b34801561037b57600080fd5b50610210610a7c565b610210610b0b565b34801561039857600080fd5b50610210600480360360208110156103af57600080fd5b50356001600160a01b0316610b7f565b3480156103cb57600080fd5b506101d4600480360360208110156103e257600080fd5b50356001600160a01b0316610bf2565b600381815481106103ff57fe5b600091825260209091206004909102018054600182015460028301546003909301546001600160a01b039092169350919084565b6004602052600090815260409020805460019091015482565b60075481565b6000600360008154811061046257fe5b60009182526020808320338452600491829052604090932080549290910290920192508311156104ce576040805162461bcd60e51b81526020600482015260126024820152711dda5d1a191c985dce881b9bdd0819dbdbd960721b604482015290519081900360640190fd5b6104d860006106d9565b6000610512826001015461050c64e8d4a5100061050687600301548760000154610d4590919063ffffffff16565b90610da5565b90610de7565b9050801561054f576000610524610944565b9050801561054d57808211156105435761053e3382610e29565b61054d565b61054d3383610e29565b505b83156105795781546105619085610de7565b82558254610579906001600160a01b03163386610ec3565b600383015482546105949164e8d4a510009161050691610d45565b600183015560408051858152905133917f884edad9ce6fa2440d8a54cc123490eb96d2768479d49ff9c7366125a9424364919081900360200190a250505050565b6105dd610f15565b6000546001600160a01b0390811691161461063f576040805162461bcd60e51b815260206004820181905260248201527f4f776e61626c653a2063616c6c6572206973206e6f7420746865206f776e6572604482015290519081900360640190fd5b610647610944565b811115610690576040805162461bcd60e51b81526020600482015260126024820152716e6f7420656e6f756768207265776172647360701b604482015290519081900360640190fd5b61069a3382610e29565b60408051828152905133917f2d4434bb59801e733e9ce3df40b0c5518861a5fcdeec1906e83e03c755872b42919081900360200190a250565b60065481565b6000600382815481106106e857fe5b90600052602060002090600402019050806002015443116107095750610806565b8054604080516370a0823160e01b815230600482015290516000926001600160a01b0316916370a08231916024808301926020929190829003018186803b15801561075357600080fd5b505afa158015610767573d6000803e3d6000fd5b505050506040513d602081101561077d57600080fd5b5051905080610793575043600290910155610806565b60006107a3836002015443610904565b905060006107d060055461050686600101546107ca60025487610d4590919063ffffffff16565b90610d45565b90506107f36107e8846105068464e8d4a51000610d45565b600386015490610f19565b6003850155505043600290920191909155505b50565b6001546001600160a01b031681565b60035460005b818110156108375761082f816106d9565b60010161081e565b5050565b610843610f15565b6000546001600160a01b039081169116146108a5576040805162461bcd60e51b815260206004820181905260248201527f4f776e61626c653a2063616c6c6572206973206e6f7420746865206f776e6572604482015290519081900360640190fd5b600080546040516001600160a01b03909116907f8be0079c531659141344cd1fd0a4f28419497f9722a3daafe3b4186f6b6457e0908390a3600080546001600160a01b0319169055565b60025481565b6000546001600160a01b031690565b60006007548211610920576109198284610de7565b905061093e565b60075483106109315750600061093e565b6007546109199084610de7565b92915050565b303190565b6000600360008154811061095957fe5b60009182526020808320338452600491829052604084209290910201925090610981906106d9565b8054156109f55760006109b6826001015461050c64e8d4a5100061050687600301548760000154610d4590919063ffffffff16565b905080156109f35760006109c8610944565b905080156109f157808211156109e7576109e23382610e29565b6109f1565b6109f13383610e29565b505b505b8215610a21578154610a12906001600160a01b0316333086610f73565b8054610a1e9084610f19565b81555b60038201548154610a3c9164e8d4a510009161050691610d45565b600182015560408051848152905133917fe1fffcc4923d04b559f4d29a8bfc6cda04eb5b0d3c460751c2402c5c5cc9109c919081900360200190a2505050565b60006003600081548110610a8c57fe5b600091825260208083203380855260049283905260409094208054929093020180549094509192610ac6926001600160a01b031691610ec3565b600080825560018201819055604080519182525133917f5fafa99d0643513820be26656b45130b01e1c03062e1266bf36f88cbd3bd9695919081900360200190a25050565b60003411610b4a5760405162461bcd60e51b815260040180806020018281038252603281526020018061142e6032913960400191505060405180910390fd5b6040805134815290517fff0d9f73324a6d0750798c2f9cca51b72af70d04b4fc2227870609b7a33ebc9b9181900360200190a1565b610b87610f15565b6000546001600160a01b03908116911614610be9576040805162461bcd60e51b815260206004820181905260248201527f4f776e61626c653a2063616c6c6572206973206e6f7420746865206f776e6572604482015290519081900360640190fd5b61080681610fd3565b6000806003600081548110610c0357fe5b600091825260208083206001600160a01b038781168552600480845260408087209582029093016003810154815485516370a0823160e01b81523094810194909452945191985095969493909216926370a0823192602480840193829003018186803b158015610c7257600080fd5b505afa158015610c86573d6000803e3d6000fd5b505050506040513d6020811015610c9c57600080fd5b5051600285015490915043118015610cb357508015155b15610d13576000610cc8856002015443610904565b90506000610cef60055461050688600101546107ca60025487610d4590919063ffffffff16565b9050610d0e610d07846105068464e8d4a51000610d45565b8590610f19565b935050505b610d3b836001015461050c64e8d4a51000610506868860000154610d4590919063ffffffff16565b9695505050505050565b600082610d545750600061093e565b82820282848281610d6157fe5b0414610d9e5760405162461bcd60e51b81526004018080602001828103825260218152602001806114606021913960400191505060405180910390fd5b9392505050565b6000610d9e83836040518060400160405280601a81526020017f536166654d6174683a206469766973696f6e206279207a65726f000000000000815250611073565b6000610d9e83836040518060400160405280601e81526020017f536166654d6174683a207375627472616374696f6e206f766572666c6f770000815250611115565b6040516000906001600160a01b038416906159d890849084818181858888f193505050503d8060008114610e79576040519150601f19603f3d011682016040523d82523d6000602084013e610e7e565b606091505b5050905080610ebe5760405162461bcd60e51b81526004018080602001828103825260238152602001806114816023913960400191505060405180910390fd5b505050565b604080516001600160a01b038416602482015260448082018490528251808303909101815260649091019091526020810180516001600160e01b031663a9059cbb60e01b179052610ebe90849061116f565b3390565b600082820183811015610d9e576040805162461bcd60e51b815260206004820152601b60248201527f536166654d6174683a206164646974696f6e206f766572666c6f770000000000604482015290519081900360640190fd5b604080516001600160a01b0380861660248301528416604482015260648082018490528251808303909101815260849091019091526020810180516001600160e01b03166323b872dd60e01b179052610fcd90859061116f565b50505050565b6001600160a01b0381166110185760405162461bcd60e51b81526004018080602001828103825260268152602001806114086026913960400191505060405180910390fd5b600080546040516001600160a01b03808516939216917f8be0079c531659141344cd1fd0a4f28419497f9722a3daafe3b4186f6b6457e091a3600080546001600160a01b0319166001600160a01b0392909216919091179055565b600081836110ff5760405162461bcd60e51b81526004018080602001828103825283818151815260200191508051906020019080838360005b838110156110c45781810151838201526020016110ac565b50505050905090810190601f1680156110f15780820380516001836020036101000a031916815260200191505b509250505060405180910390fd5b50600083858161110b57fe5b0495945050505050565b600081848411156111675760405162461bcd60e51b81526020600482018181528351602484015283519092839260449091019190850190808383600083156110c45781810151838201526020016110ac565b505050900390565b60606111c4826040518060400160405280602081526020017f5361666542455032303a206c6f772d6c6576656c2063616c6c206661696c6564815250856001600160a01b03166112209092919063ffffffff16565b805190915015610ebe578080602001905160208110156111e357600080fd5b5051610ebe5760405162461bcd60e51b815260040180806020018281038252602a8152602001806113de602a913960400191505060405180910390fd5b606061122f8484600085611237565b949350505050565b6060611242856113a4565b611293576040805162461bcd60e51b815260206004820152601d60248201527f416464726573733a2063616c6c20746f206e6f6e2d636f6e7472616374000000604482015290519081900360640190fd5b60006060866001600160a01b031685876040518082805190602001908083835b602083106112d25780518252601f1990920191602091820191016112b3565b6001836020036101000a03801982511681845116808217855250505050505090500191505060006040518083038185875af1925050503d8060008114611334576040519150601f19603f3d011682016040523d82523d6000602084013e611339565b606091505b5091509150811561134d57915061122f9050565b80511561135d5780518082602001fd5b60405162461bcd60e51b81526020600482018181528651602484015286518793919283926044019190850190808383600083156110c45781810151838201526020016110ac565b6000813f7fc5d2460186f7233c927e7db2dcc703c0e500b653ca82273b7bfad8045d85a47081811480159061122f57505015159291505056fe5361666542455032303a204245503230206f7065726174696f6e20646964206e6f7420737563636565644f776e61626c653a206e6577206f776e657220697320746865207a65726f20616464726573734d65737361676520686173206e6f20424e422076616c756520746f206465706f73697420696e746f20636f6e74726163742e536166654d6174683a206d756c7469706c69636174696f6e206f766572666c6f775472616e7366657248656c7065723a20424e425f5452414e534645525f4641494c4544a26469706673582212201c79493d1a20dfc56527c26f88530cff933ab27867d4cf7ae5243b50a5844f4c64736f6c634300060c0033",
  "immutableReferences": {},
  "source": "pragma solidity 0.6.12;\n\n\nimport '@pancakeswap/pancake-swap-lib/contracts/math/SafeMath.sol';\nimport '@pancakeswap/pancake-swap-lib/contracts/token/BEP20/IBEP20.sol';\nimport '@pancakeswap/pancake-swap-lib/contracts/token/BEP20/SafeBEP20.sol';\nimport '@pancakeswap/pancake-swap-lib/contracts/access/Ownable.sol';\n\n\ncontract BNBRewardBalance is Ownable {\n    using SafeMath for uint256;\n    using SafeBEP20 for IBEP20;\n\n    // Info of each user.\n    struct UserInfo {\n        uint256 amount;     // How many LP tokens the user has provided.\n        uint256 rewardDebt; // Reward debt. See explanation below.\n    }\n\n    // Info of each pool.\n    struct PoolInfo {\n        IBEP20 lpToken;           // Address of LP token contract.\n        uint256 allocPoint;       // How many allocation points assigned to this pool. Rewards to distribute per block.\n        uint256 lastRewardBlock;  // Last block number that Rewards distribution occurs.\n        uint256 accRewardTokenPerShare; // Accumulated Rewards per share, times 1e12. See below.\n    }\n\n    // The stake TOKEN!\n    IBEP20 public stakeToken;\n\n    // Reward tokens created per block.\n    uint256 public rewardPerBlock;\n\n\n    // Info of each pool.\n    PoolInfo[] public poolInfo;\n    // Info of each user that stakes LP tokens.\n    mapping (address => UserInfo) public userInfo;\n    // Total allocation poitns. Must be the sum of all allocation points in all pools.\n    uint256 private totalAllocPoint = 0;\n    // The block number when Reward mining starts.\n    uint256 public startBlock;\n\t// The block number when mining ends.\t\n    uint256 public bonusEndBlock;\n\n    event Deposit(address indexed user, uint256 amount);\n    event DepositBNBRewards(uint256 amount);\n    event Withdraw(address indexed user, uint256 amount);\n    event EmergencyWithdraw(address indexed user, uint256 amount);\n    event EmergencyRewardWithdraw(address indexed user, uint256 amount);\n\n    constructor(\n        IBEP20 _stakeToken,\n        uint256 _rewardPerBlock,\n        uint256 _startBlock,\n        uint256 _bonusEndBlock\n    ) public {\n        stakeToken = _stakeToken;\n        rewardPerBlock = _rewardPerBlock;\n        startBlock = _startBlock;\n        bonusEndBlock = _bonusEndBlock;\n\n        // staking pool\n        poolInfo.push(PoolInfo({\n            lpToken: _stakeToken,\n            allocPoint: 1000,\n            lastRewardBlock: startBlock,\n            accRewardTokenPerShare: 0\n        }));\n\n        totalAllocPoint = 1000;\n\n    }\n\n    // Return reward multiplier over the given _from to _to block.\n    function getMultiplier(uint256 _from, uint256 _to) public view returns (uint256) {\n        if (_to <= bonusEndBlock) {\n            return _to.sub(_from);\n        } else if (_from >= bonusEndBlock) {\n            return 0;\n        } else {\n            return bonusEndBlock.sub(_from);\n        }\n    }\n\n    // View function to see pending Reward on frontend.\n    function pendingReward(address _user) external view returns (uint256) {\n        PoolInfo storage pool = poolInfo[0];\n        UserInfo storage user = userInfo[_user];\n        uint256 accRewardTokenPerShare = pool.accRewardTokenPerShare;\n        uint256 lpSupply = pool.lpToken.balanceOf(address(this));\n        if (block.number > pool.lastRewardBlock && lpSupply != 0) {\n            uint256 multiplier = getMultiplier(pool.lastRewardBlock, block.number);\n            uint256 tokenReward = multiplier.mul(rewardPerBlock).mul(pool.allocPoint).div(totalAllocPoint);\n            accRewardTokenPerShare = accRewardTokenPerShare.add(tokenReward.mul(1e12).div(lpSupply));\n        }\n        return user.amount.mul(accRewardTokenPerShare).div(1e12).sub(user.rewardDebt);\n    }\n\n    // Update reward variables of the given pool to be up-to-date.\n    function updatePool(uint256 _pid) public {\n        PoolInfo storage pool = poolInfo[_pid];\n        if (block.number <= pool.lastRewardBlock) {\n            return;\n        }\n        uint256 lpSupply = pool.lpToken.balanceOf(address(this));\n        if (lpSupply == 0) {\n            pool.lastRewardBlock = block.number;\n            return;\n        }\n        uint256 multiplier = getMultiplier(pool.lastRewardBlock, block.number);\n        uint256 tokenReward = multiplier.mul(rewardPerBlock).mul(pool.allocPoint).div(totalAllocPoint);\n        pool.accRewardTokenPerShare = pool.accRewardTokenPerShare.add(tokenReward.mul(1e12).div(lpSupply));\n        pool.lastRewardBlock = block.number;\n    }\n\n    // Update reward variables for all pools. Be careful of gas spending!\n    function massUpdatePools() public {\n        uint256 length = poolInfo.length;\n        for (uint256 pid = 0; pid < length; ++pid) {\n            updatePool(pid);\n        }\n    }\n\n\n    /// Deposit staking token into the contract to earn rewards. \n    /// @dev Since this contract needs to be supplied with rewards we are \n    ///  sending the balance of the contract if the pending rewards are higher\n    /// @param _amount The amount of staking tokens to deposit\n    function deposit(uint256 _amount) public {\n        PoolInfo storage pool = poolInfo[0];\n        UserInfo storage user = userInfo[msg.sender];\n        updatePool(0);\n        if (user.amount > 0) {\n            uint256 pending = user.amount.mul(pool.accRewardTokenPerShare).div(1e12).sub(user.rewardDebt);\n            if(pending > 0) {\n                uint256 currentRewardBalance = rewardBalance();\n                if(currentRewardBalance > 0) {\n                    if(pending > currentRewardBalance) {\n                        safeTransferBNB(address(msg.sender), currentRewardBalance);\n                    } else {\n                        safeTransferBNB(address(msg.sender), pending);\n                    }\n                }\n            }\n        }\n        if(_amount > 0) {\n            pool.lpToken.safeTransferFrom(address(msg.sender), address(this), _amount);\n            user.amount = user.amount.add(_amount);\n        }\n        user.rewardDebt = user.amount.mul(pool.accRewardTokenPerShare).div(1e12);\n\n        emit Deposit(msg.sender, _amount);\n    }\n\n    /// Withdraw rewards and/or staked tokens. Pass a 0 amount to withdraw only rewards \n    /// @param _amount The amount of staking tokens to withdraw\n    function withdraw(uint256 _amount) public {\n        PoolInfo storage pool = poolInfo[0];\n        UserInfo storage user = userInfo[msg.sender];\n        require(user.amount >= _amount, \"withdraw: not good\");\n        updatePool(0);\n        uint256 pending = user.amount.mul(pool.accRewardTokenPerShare).div(1e12).sub(user.rewardDebt);\n        if(pending > 0) {\n            uint256 currentRewardBalance = rewardBalance();\n            if(currentRewardBalance > 0) {\n                if(pending > currentRewardBalance) {\n                    safeTransferBNB(address(msg.sender), currentRewardBalance);\n                } else {\n                    safeTransferBNB(address(msg.sender), pending);\n                }\n            }\n        }\n        if(_amount > 0) {\n            user.amount = user.amount.sub(_amount);\n            pool.lpToken.safeTransfer(address(msg.sender), _amount);\n        }\n\n        user.rewardDebt = user.amount.mul(pool.accRewardTokenPerShare).div(1e12);\n\n        emit Withdraw(msg.sender, _amount);\n    }\n\n    /// Obtain the reward balance of this contract\n    /// @return wei balace of conract\n    function rewardBalance() public view returns (uint256) {\n        return payable(address(this)).balance;\n    }\n\n    // Deposit Rewards into contract\n    function depositBNBRewards() external payable {\n        require(msg.value > 0, 'Message has no BNB value to deposit into contract.');\n        emit DepositBNBRewards(msg.value);\n    }\n\n    /// @param to address to send BNB to\n    /// @param value wei value of BNB to transfer\n    function safeTransferBNB(address to, uint256 value) internal {\n        // Transfer BNB to address\n        (bool success, ) = to.call{gas: 23000, value: value}(\"\");\n        require(success, 'TransferHelper: BNB_TRANSFER_FAILED');\n    }\n\n    /* Emergency Functions */ \n\n    // Withdraw without caring about rewards. EMERGENCY ONLY.\n    function emergencyWithdraw() external {\n        PoolInfo storage pool = poolInfo[0];\n        UserInfo storage user = userInfo[msg.sender];\n        pool.lpToken.safeTransfer(address(msg.sender), user.amount);\n        user.amount = 0;\n        user.rewardDebt = 0;\n        emit EmergencyWithdraw(msg.sender, user.amount);\n    }\n\n    // Withdraw reward. EMERGENCY ONLY.\n    function emergencyRewardWithdraw(uint256 _amount) external onlyOwner {\n        require(_amount <= rewardBalance(), 'not enough rewards');\n        // Withdraw the BNB rewards\n        safeTransferBNB(address(msg.sender), _amount);\n        emit EmergencyRewardWithdraw(msg.sender, _amount);\n    }\n\n}",
  "sourcePath": "C:\\Users\\OmrElibol\\OneDrive\\Masast\\BalanceContractRevise\\contracts\\BNBRewardBalance.sol",
  "compiler": {
    "name": "solc",
    "version": "0.6.12+commit.27d51765.Emscripten.clang"
  },
  "schemaVersion": "3.4.10",
  "updatedAt": "2022-10-03T08:13:26.955Z",
  "devdoc": {
    "kind": "dev",
    "methods": {
      "deposit(uint256)": {
        "details": "Since this contract needs to be supplied with rewards we are   sending the balance of the contract if the pending rewards are higher",
        "params": {
          "_amount": "The amount of staking tokens to deposit"
        }
      },
      "owner()": {
        "details": "Returns the address of the current owner."
      },
      "renounceOwnership()": {
        "details": "Leaves the contract without owner. It will not be possible to call `onlyOwner` functions anymore. Can only be called by the current owner. NOTE: Renouncing ownership will leave the contract without an owner, thereby removing any functionality that is only available to the owner."
      },
      "rewardBalance()": {
        "returns": {
          "_0": "wei balace of conract"
        }
      },
      "transferOwnership(address)": {
        "details": "Transfers ownership of the contract to a new account (`newOwner`). Can only be called by the current owner."
      },
      "withdraw(uint256)": {
        "params": {
          "_amount": "The amount of staking tokens to withdraw"
        }
      }
    },
    "version": 1
  },
  "userdoc": {
    "kind": "user",
    "methods": {
      "deposit(uint256)": {
        "notice": "Deposit staking token into the contract to earn rewards. "
      },
      "rewardBalance()": {
        "notice": "Obtain the reward balance of this contract"
      },
      "withdraw(uint256)": {
        "notice": "Withdraw rewards and/or staked tokens. Pass a 0 amount to withdraw only rewards "
      }
    },
    "version": 1
  }
}