{
  "contractName": "MasterBalanceAdmin",
  "abi": [
    {
      "inputs": [
        {
          "internalType": "contract IMasterBalance",
          "name": "_masterBalance",
          "type": "address"
        },
        {
          "internalType": "address",
          "name": "_farmAdmin",
          "type": "address"
        }
      ],
      "stateMutability": "nonpayable",
      "type": "constructor"
    },
    {
      "anonymous": false,
      "inputs": [
        {
          "indexed": true,
          "internalType": "contract IERC20",
          "name": "lpToken",
          "type": "address"
        },
        {
          "indexed": false,
          "internalType": "uint256",
          "name": "allocation",
          "type": "uint256"
        }
      ],
      "name": "AddFarm",
      "type": "event"
    },
    {
      "anonymous": false,
      "inputs": [
        {
          "indexed": true,
          "internalType": "uint256",
          "name": "pid",
          "type": "uint256"
        },
        {
          "indexed": false,
          "internalType": "uint256",
          "name": "allocationPercentage",
          "type": "uint256"
        }
      ],
      "name": "AddFixedPercentFarm",
      "type": "event"
    },
    {
      "anonymous": false,
      "inputs": [
        {
          "indexed": true,
          "internalType": "address",
          "name": "previousOwner",
          "type": "address"
        },
        {
          "indexed": true,
          "internalType": "address",
          "name": "newOwner",
          "type": "address"
        }
      ],
      "name": "OwnershipTransferred",
      "type": "event"
    },
    {
      "anonymous": false,
      "inputs": [
        {
          "indexed": true,
          "internalType": "uint256",
          "name": "pid",
          "type": "uint256"
        },
        {
          "indexed": false,
          "internalType": "uint256",
          "name": "allocation",
          "type": "uint256"
        }
      ],
      "name": "SetFarm",
      "type": "event"
    },
    {
      "anonymous": false,
      "inputs": [
        {
          "indexed": true,
          "internalType": "uint256",
          "name": "pid",
          "type": "uint256"
        },
        {
          "indexed": false,
          "internalType": "uint256",
          "name": "previousAllocationPercentage",
          "type": "uint256"
        },
        {
          "indexed": false,
          "internalType": "uint256",
          "name": "allocationPercentage",
          "type": "uint256"
        }
      ],
      "name": "SetFixedPercentFarm",
      "type": "event"
    },
    {
      "anonymous": false,
      "inputs": [
        {
          "indexed": false,
          "internalType": "address",
          "name": "pendingMasterBalanceOwner",
          "type": "address"
        }
      ],
      "name": "SetPendingMasterBalanceOwner",
      "type": "event"
    },
    {
      "anonymous": false,
      "inputs": [
        {
          "indexed": true,
          "internalType": "address",
          "name": "to",
          "type": "address"
        },
        {
          "indexed": true,
          "internalType": "contract IERC20",
          "name": "token",
          "type": "address"
        },
        {
          "indexed": false,
          "internalType": "uint256",
          "name": "amount",
          "type": "uint256"
        }
      ],
      "name": "SweepWithdraw",
      "type": "event"
    },
    {
      "anonymous": false,
      "inputs": [
        {
          "indexed": true,
          "internalType": "uint256",
          "name": "pid",
          "type": "uint256"
        },
        {
          "indexed": false,
          "internalType": "uint256",
          "name": "allocation",
          "type": "uint256"
        }
      ],
      "name": "SyncFixedPercentFarm",
      "type": "event"
    },
    {
      "anonymous": false,
      "inputs": [
        {
          "indexed": true,
          "internalType": "address",
          "name": "previousFarmAdmin",
          "type": "address"
        },
        {
          "indexed": true,
          "internalType": "address",
          "name": "newFarmAdmin",
          "type": "address"
        }
      ],
      "name": "TransferredFarmAdmin",
      "type": "event"
    },
    {
      "inputs": [],
      "name": "BASE_PERCENTAGE",
      "outputs": [
        {
          "internalType": "uint256",
          "name": "",
          "type": "uint256"
        }
      ],
      "stateMutability": "view",
      "type": "function"
    },
    {
      "inputs": [],
      "name": "MAX_BONUS_MULTIPLIER",
      "outputs": [
        {
          "internalType": "uint256",
          "name": "",
          "type": "uint256"
        }
      ],
      "stateMutability": "view",
      "type": "function"
    },
    {
      "inputs": [],
      "name": "MAX_FIXED_FARM_PERCENTAGE",
      "outputs": [
        {
          "internalType": "uint256",
          "name": "",
          "type": "uint256"
        }
      ],
      "stateMutability": "view",
      "type": "function"
    },
    {
      "inputs": [],
      "name": "MAX_FIXED_FARM_PERCENTAGE_BUFFER",
      "outputs": [
        {
          "internalType": "uint256",
          "name": "",
          "type": "uint256"
        }
      ],
      "stateMutability": "view",
      "type": "function"
    },
    {
      "inputs": [],
      "name": "PERCENTAGE_PRECISION",
      "outputs": [
        {
          "internalType": "uint256",
          "name": "",
          "type": "uint256"
        }
      ],
      "stateMutability": "view",
      "type": "function"
    },
    {
      "inputs": [],
      "name": "farmAdmin",
      "outputs": [
        {
          "internalType": "address",
          "name": "",
          "type": "address"
        }
      ],
      "stateMutability": "view",
      "type": "function"
    },
    {
      "inputs": [
        {
          "internalType": "uint256",
          "name": "",
          "type": "uint256"
        }
      ],
      "name": "fixedPercentFarmPids",
      "outputs": [
        {
          "internalType": "uint256",
          "name": "",
          "type": "uint256"
        }
      ],
      "stateMutability": "view",
      "type": "function"
    },
    {
      "inputs": [
        {
          "internalType": "uint256",
          "name": "",
          "type": "uint256"
        }
      ],
      "name": "getFixedPercentFarmFromPid",
      "outputs": [
        {
          "internalType": "uint256",
          "name": "pid",
          "type": "uint256"
        },
        {
          "internalType": "uint256",
          "name": "allocationPercent",
          "type": "uint256"
        },
        {
          "internalType": "bool",
          "name": "isActive",
          "type": "bool"
        }
      ],
      "stateMutability": "view",
      "type": "function"
    },
    {
      "inputs": [],
      "name": "masterBalance",
      "outputs": [
        {
          "internalType": "contract IMasterBalance",
          "name": "",
          "type": "address"
        }
      ],
      "stateMutability": "view",
      "type": "function"
    },
    {
      "inputs": [],
      "name": "owner",
      "outputs": [
        {
          "internalType": "address",
          "name": "",
          "type": "address"
        }
      ],
      "stateMutability": "view",
      "type": "function"
    },
    {
      "inputs": [],
      "name": "pendingMasterBalanceOwner",
      "outputs": [
        {
          "internalType": "address",
          "name": "",
          "type": "address"
        }
      ],
      "stateMutability": "view",
      "type": "function"
    },
    {
      "inputs": [],
      "name": "renounceOwnership",
      "outputs": [],
      "stateMutability": "nonpayable",
      "type": "function"
    },
    {
      "inputs": [],
      "name": "totalFixedPercentFarmPercentage",
      "outputs": [
        {
          "internalType": "uint256",
          "name": "",
          "type": "uint256"
        }
      ],
      "stateMutability": "view",
      "type": "function"
    },
    {
      "inputs": [
        {
          "internalType": "address",
          "name": "newOwner",
          "type": "address"
        }
      ],
      "name": "transferOwnership",
      "outputs": [],
      "stateMutability": "nonpayable",
      "type": "function"
    },
    {
      "inputs": [
        {
          "internalType": "address",
          "name": "_pendingMasterBalanceOwner",
          "type": "address"
        }
      ],
      "name": "setPendingMasterBalanceOwner",
      "outputs": [],
      "stateMutability": "nonpayable",
      "type": "function"
    },
    {
      "inputs": [],
      "name": "acceptMasterBalanceOwnership",
      "outputs": [],
      "stateMutability": "nonpayable",
      "type": "function"
    },
    {
      "inputs": [
        {
          "internalType": "uint256",
          "name": "_newMultiplier",
          "type": "uint256"
        }
      ],
      "name": "updateMasterBalanceMultiplier",
      "outputs": [],
      "stateMutability": "nonpayable",
      "type": "function"
    },
    {
      "inputs": [
        {
          "internalType": "uint256[]",
          "name": "pids",
          "type": "uint256[]"
        }
      ],
      "name": "batchUpdateMasterBalancePools",
      "outputs": [],
      "stateMutability": "nonpayable",
      "type": "function"
    },
    {
      "inputs": [
        {
          "internalType": "uint256",
          "name": "pid",
          "type": "uint256"
        }
      ],
      "name": "getDetailedPoolInfo",
      "outputs": [
        {
          "internalType": "address",
          "name": "lpToken",
          "type": "address"
        },
        {
          "internalType": "uint256",
          "name": "poolAllocationPoint",
          "type": "uint256"
        },
        {
          "internalType": "uint256",
          "name": "totalAllocationPoints",
          "type": "uint256"
        },
        {
          "internalType": "uint256",
          "name": "poolAllocationPercentMantissa",
          "type": "uint256"
        },
        {
          "internalType": "uint256",
          "name": "poolBalancerBlock",
          "type": "uint256"
        },
        {
          "internalType": "uint256",
          "name": "poolBalancePerDay",
          "type": "uint256"
        },
        {
          "internalType": "uint256",
          "name": "poolBalancePerMonth",
          "type": "uint256"
        }
      ],
      "stateMutability": "view",
      "type": "function"
    },
    {
      "inputs": [
        {
          "internalType": "contract IERC20[]",
          "name": "_tokens",
          "type": "address[]"
        },
        {
          "internalType": "address",
          "name": "_to",
          "type": "address"
        }
      ],
      "name": "sweepTokens",
      "outputs": [],
      "stateMutability": "nonpayable",
      "type": "function"
    },
    {
      "inputs": [
        {
          "internalType": "address",
          "name": "_newFarmAdmin",
          "type": "address"
        }
      ],
      "name": "transferFarmAdminOwnership",
      "outputs": [],
      "stateMutability": "nonpayable",
      "type": "function"
    },
    {
      "inputs": [],
      "name": "syncFixedPercentFarms",
      "outputs": [],
      "stateMutability": "nonpayable",
      "type": "function"
    },
    {
      "inputs": [
        {
          "internalType": "uint256[]",
          "name": "_allocPoints",
          "type": "uint256[]"
        },
        {
          "internalType": "contract IERC20[]",
          "name": "_lpTokens",
          "type": "address[]"
        },
        {
          "internalType": "bool",
          "name": "_withMassPoolUpdate",
          "type": "bool"
        },
        {
          "internalType": "bool",
          "name": "_syncFixedPercentageFarms",
          "type": "bool"
        }
      ],
      "name": "addMasterBalanceFarms",
      "outputs": [],
      "stateMutability": "nonpayable",
      "type": "function"
    },
    {
      "inputs": [
        {
          "internalType": "uint256[]",
          "name": "_pids",
          "type": "uint256[]"
        },
        {
          "internalType": "uint256[]",
          "name": "_allocPoints",
          "type": "uint256[]"
        },
        {
          "internalType": "bool",
          "name": "_withMassPoolUpdate",
          "type": "bool"
        },
        {
          "internalType": "bool",
          "name": "_syncFixedPercentageFarms",
          "type": "bool"
        }
      ],
      "name": "setMasterBalanceFarms",
      "outputs": [],
      "stateMutability": "nonpayable",
      "type": "function"
    },
    {
      "inputs": [
        {
          "internalType": "uint256",
          "name": "_pid",
          "type": "uint256"
        },
        {
          "internalType": "uint256",
          "name": "_allocPercentage",
          "type": "uint256"
        },
        {
          "internalType": "bool",
          "name": "_withMassPoolUpdate",
          "type": "bool"
        },
        {
          "internalType": "bool",
          "name": "_syncFixedPercentageFarms",
          "type": "bool"
        }
      ],
      "name": "addFixedPercentFarmAllocation",
      "outputs": [],
      "stateMutability": "nonpayable",
      "type": "function"
    },
    {
      "inputs": [
        {
          "internalType": "uint256",
          "name": "_pid",
          "type": "uint256"
        },
        {
          "internalType": "uint256",
          "name": "_allocPercentage",
          "type": "uint256"
        },
        {
          "internalType": "bool",
          "name": "_withMassPoolUpdate",
          "type": "bool"
        },
        {
          "internalType": "bool",
          "name": "_syncFixedPercentageFarms",
          "type": "bool"
        }
      ],
      "name": "setFixedPercentFarmAllocation",
      "outputs": [],
      "stateMutability": "nonpayable",
      "type": "function"
    },
    {
      "inputs": [],
      "name": "getNumberOfFixedPercentFarms",
      "outputs": [
        {
          "internalType": "uint256",
          "name": "",
          "type": "uint256"
        }
      ],
      "stateMutability": "view",
      "type": "function"
    },
    {
      "inputs": [],
      "name": "getTotalAllocationPercent",
      "outputs": [
        {
          "internalType": "uint256",
          "name": "",
          "type": "uint256"
        }
      ],
      "stateMutability": "view",
      "type": "function"
    }
  ],
  "bytecode": "0x60a0604052600280546001600160a01b0319169055600060055534801561002557600080fd5b5060405162002839380380620028398339818101604052604081101561004a57600080fd5b508051602090910151600061005d6100de565b600080546001600160a01b0319166001600160a01b0383169081178255604051929350917f8be0079c531659141344cd1fd0a4f28419497f9722a3daafe3b4186f6b6457e0908290a35060609190911b6001600160601b031916608052600180546001600160a01b0319166001600160a01b039092169190911790556100e2565b3390565b60805160601c6126da6200015f6000398061086a5280610af05280610b855280610cd05280611026528061109c528061118052806112dc5280611379528061141252806114ac528061161c528061173752806117b75280611bb65280611e665280611f5852806120035280612096528061225e52506126da6000f3fe608060405234801561001057600080fd5b50600436106101c45760003560e01c806384a5180a116100f9578063d01ed08011610097578063ef794f8b11610071578063ef794f8b14610768578063f2fde38b14610770578063f49c168a14610796578063fe39aacb146107bc576101c4565b8063d01ed08014610707578063e256888f1461072d578063e32e22e314610735576101c4565b8063967ef78d116100d3578063967ef78d1461055757806399b8562c1461055f578063b0201835146105be578063c57a1961146105db576101c4565b806384a5180a1461041b5780638da5cb5b146105475780638ed2163f1461054f576101c4565b806351b98d0a116101665780636d42086a116101405780636d42086a146103425780637071f0c41461034a578063715018a6146103f657806373425197146103fe576101c4565b806351b98d0a1461029157806359118563146103325780635d823bbf1461033a576101c4565b80632643d627116101a25780632643d6271461024457806331f289581461024c5780633f53118214610254578063504ef8111461025c576101c4565b8063023d94d4146101c95780630b0329b9146102065780630fcf692f1461022a575b600080fd5b6101e6600480360360208110156101df57600080fd5b50356107c4565b604080519384526020840192909252151582820152519081900360600190f35b61020e6107e8565b604080516001600160a01b039092168252519081900360200190f35b6102326107f7565b60408051918252519081900360200190f35b610232610801565b61023261080b565b610232610815565b61028f6004803603608081101561027257600080fd5b50803590602081013590604081013515159060600135151561081b565b005b61028f600480360360208110156102a757600080fd5b810190602081018135600160201b8111156102c157600080fd5b8201836020820111156102d357600080fd5b803590602001918460208302840111600160201b831117156102f457600080fd5b919080806020026020016040519081016040528093929190818152602001838360200280828437600092019190915250929550610b77945050505050565b61028f610c24565b61020e610cce565b610232610cf2565b61028f6004803603604081101561036057600080fd5b810190602081018135600160201b81111561037a57600080fd5b82018360208201111561038c57600080fd5b803590602001918460208302840111600160201b831117156103ad57600080fd5b919080806020026020016040519081016040528093929190818152602001838360200280828437600092019190915250929550505090356001600160a01b03169150610cf89050565b61028f610ec3565b6102326004803603602081101561041457600080fd5b5035610f65565b61028f6004803603608081101561043157600080fd5b810190602081018135600160201b81111561044b57600080fd5b82018360208201111561045d57600080fd5b803590602001918460208302840111600160201b8311171561047e57600080fd5b9190808060200260200160405190810160405280939291908181526020018383602002808284376000920191909152509295949360208101935035915050600160201b8111156104cd57600080fd5b8201836020820111156104df57600080fd5b803590602001918460208302840111600160201b8311171561050057600080fd5b919080806020026020016040519081016040528093929190818152602001838360200280828437600092019190915250929550505050803515159150602001351515610f83565b61020e6112aa565b61020e6112b9565b6102326112c8565b61057c6004803603602081101561057557600080fd5b50356112ce565b604080516001600160a01b0390981688526020880196909652868601949094526060860192909252608085015260a084015260c0830152519081900360e00190f35b61028f600480360360208110156105d457600080fd5b503561156c565b61028f600480360360808110156105f157600080fd5b810190602081018135600160201b81111561060b57600080fd5b82018360208201111561061d57600080fd5b803590602001918460208302840111600160201b8311171561063e57600080fd5b9190808060200260200160405190810160405280939291908181526020018383602002808284376000920191909152509295949360208101935035915050600160201b81111561068d57600080fd5b82018360208201111561069f57600080fd5b803590602001918460208302840111600160201b831117156106c057600080fd5b919080806020026020016040519081016040528093929190818152602001838360200280828437600092019190915250929550505050803515159150602001351515611694565b61028f6004803603602081101561071d57600080fd5b50356001600160a01b03166118f9565b6102326119df565b61028f6004803603608081101561074b57600080fd5b5080359060208101359060408101351515906060013515156119e5565b610232611c3f565b61028f6004803603602081101561078657600080fd5b50356001600160a01b0316611c44565b61028f600480360360208110156107ac57600080fd5b50356001600160a01b0316611d3c565b61028f611dee565b60046020526000908152604090208054600182015460029092015490919060ff1683565b6001546001600160a01b031681565b600a6127105b0481565b60046127106107fd565b6005546109c40190565b61196481565b6001546001600160a01b03163314610868576040805162461bcd60e51b815260206004820152601c60248201526000805160206125f7833981519152604482015290519081900360640190fd5b7f00000000000000000000000000000000000000000000000000000000000000006001600160a01b031663081e3eda6040518163ffffffff1660e01b815260040160206040518083038186803b1580156108c157600080fd5b505afa1580156108d5573d6000803e3d6000fd5b505050506040513d60208110156108eb57600080fd5b5051841061092a5760405162461bcd60e51b81526004018080602001828103825260258152602001806126176025913960400191505060405180910390fd5b836109665760405162461bcd60e51b81526004018080602001828103825260278152602001806125aa6027913960400191505060405180910390fd5b60008481526004602052604090206002015460ff16156109cd576040805162461bcd60e51b815260206004820181905260248201527f66697865642070657263656e74206661726d20616c7265616479206164646564604482015290519081900360640190fd5b6005546000906109dd9085611eda565b9050611964811115610a36576040805162461bcd60e51b815260206004820152601860248201527f616c6c6f636174696f6e206f7574206f6620626f756e64730000000000000000604482015290519081900360640190fd5b6005819055604080516060810182528681526020808201878152600183850181815260008b81526004855286812095518655925185830155516002909401805460ff19169415159490941790935560038054938401815590527fc2575a0e9e593c00f959f8c92f12db2869c3395a3b0502d05e2516446f71f85b9091018790558151868152915187927fe189b71b104a634f2a39080757eda5ebcc40b9cbd276eb27dc0e17edbe2dc79392908290030190a28215610b62577f00000000000000000000000000000000000000000000000000000000000000006001600160a01b031663630b5ba16040518163ffffffff1660e01b8152600401600060405180830381600087803b158015610b4957600080fd5b505af1158015610b5d573d6000803e3d6000fd5b505050505b8115610b7057610b70611f3d565b5050505050565b60005b8151811015610c20577f00000000000000000000000000000000000000000000000000000000000000006001600160a01b03166351eb05a6838381518110610bbe57fe5b60200260200101516040518263ffffffff1660e01b815260040180828152602001915050600060405180830381600087803b158015610bfc57600080fd5b505af1158015610c10573d6000803e3d6000fd5b505060019092019150610b7a9050565b5050565b6001546001600160a01b03163314610c71576040805162461bcd60e51b815260206004820152601c60248201526000805160206125f7833981519152604482015290519081900360640190fd5b6000610c7b6112c8565b11610cc4576040805162461bcd60e51b81526020600482015260146024820152731b9bc8199a5e19590819985c9b5cc8185919195960621b604482015290519081900360640190fd5b610ccc611f3d565b565b7f000000000000000000000000000000000000000000000000000000000000000081565b60055481565b610d00612307565b6000546001600160a01b03908116911614610d50576040805162461bcd60e51b8152602060048201819052602482015260008051602061265d833981519152604482015290519081900360640190fd5b60005b8251811015610ebe576000838281518110610d6a57fe5b602002602001015190506000816001600160a01b03166370a08231306040518263ffffffff1660e01b815260040180826001600160a01b0316815260200191505060206040518083038186803b158015610dc357600080fd5b505afa158015610dd7573d6000803e3d6000fd5b505050506040513d6020811015610ded57600080fd5b50516040805163a9059cbb60e01b81526001600160a01b0387811660048301526024820184905291519293509084169163a9059cbb916044808201926020929091908290030181600087803b158015610e4557600080fd5b505af1158015610e59573d6000803e3d6000fd5b505050506040513d6020811015610e6f57600080fd5b50506040805182815290516001600160a01b0380851692908716917f58731823bcac65ecb95d39668d6b6a69a9c9b01156841220fc40d9eede89f81e9181900360200190a35050600101610d53565b505050565b610ecb612307565b6000546001600160a01b03908116911614610f1b576040805162461bcd60e51b8152602060048201819052602482015260008051602061265d833981519152604482015290519081900360640190fd5b600080546040516001600160a01b03909116907f8be0079c531659141344cd1fd0a4f28419497f9722a3daafe3b4186f6b6457e0908390a3600080546001600160a01b0319169055565b60038181548110610f7257fe5b600091825260209091200154905081565b6001546001600160a01b03163314610fd0576040805162461bcd60e51b815260206004820152601c60248201526000805160206125f7833981519152604482015290519081900360640190fd5b825184511461101e576040805162461bcd60e51b81526020600482015260156024820152740c2e4e4c2f240d8cadccee8d040dad2e6dac2e8c6d605b1b604482015290519081900360640190fd5b8115611098577f00000000000000000000000000000000000000000000000000000000000000006001600160a01b031663630b5ba16040518163ffffffff1660e01b8152600401600060405180830381600087803b15801561107f57600080fd5b505af1158015611093573d6000803e3d6000fd5b505050505b60007f00000000000000000000000000000000000000000000000000000000000000006001600160a01b031663081e3eda6040518163ffffffff1660e01b815260040160206040518083038186803b1580156110f357600080fd5b505afa158015611107573d6000803e3d6000fd5b505050506040513d602081101561111d57600080fd5b5051905060005b855181101561129b578186828151811061113a57fe5b60200260200101511061117e5760405162461bcd60e51b81526004018080602001828103825260258152602001806126176025913960400191505060405180910390fd5b7f00000000000000000000000000000000000000000000000000000000000000006001600160a01b03166364482f798783815181106111b957fe5b60200260200101518784815181106111cd57fe5b602002602001015160006040518463ffffffff1660e01b81526004018084815260200183815260200182151581526020019350505050600060405180830381600087803b15801561121d57600080fd5b505af1158015611231573d6000803e3d6000fd5b5050505085818151811061124157fe5b60200260200101517fd8b0081f42858568e33a7435c4eeff8797c209bf07c874d76ef281a0178d825186838151811061127657fe5b60200260200101516040518082815260200191505060405180910390a2600101611124565b508115610b7057610b70611f3d565b6000546001600160a01b031690565b6002546001600160a01b031681565b60035490565b6000806000806000806000807f00000000000000000000000000000000000000000000000000000000000000006001600160a01b0316638aa285506040518163ffffffff1660e01b815260040160206040518083038186803b15801561133357600080fd5b505afa158015611347573d6000803e3d6000fd5b505050506040513d602081101561135d57600080fd5b5051604080516303aaf05b60e11b815290516001600160a01b037f00000000000000000000000000000000000000000000000000000000000000001691630755e0b6916004808301926020929190829003018186803b1580156113bf57600080fd5b505afa1580156113d3573d6000803e3d6000fd5b505050506040513d60208110156113e957600080fd5b505160408051632f380b3560e01b8152600481018d905290519290910292506001600160a01b037f00000000000000000000000000000000000000000000000000000000000000001691632f380b3591602480820192608092909190829003018186803b15801561145957600080fd5b505afa15801561146d573d6000803e3d6000fd5b505050506040513d608081101561148357600080fd5b508051602091820151604080516317caf6f160e01b81529051929b509099506001600160a01b037f000000000000000000000000000000000000000000000000000000000000000016926317caf6f192600480840193829003018186803b1580156114ed57600080fd5b505afa158015611501573d6000803e3d6000fd5b505050506040513d602081101561151757600080fd5b505195506115378661153189670de0b6b3a764000061230b565b90612364565b945061154f670de0b6b3a7640000611531838861230b565b97999698509496939592945050617080830292620d2f0002919050565b611574612307565b6000546001600160a01b039081169116146115c4576040805162461bcd60e51b8152602060048201819052602482015260008051602061265d833981519152604482015290519081900360640190fd5b600481111561161a576040805162461bcd60e51b815260206004820152601b60248201527f6d756c7469706c6965722067726561746572207468616e206d61780000000000604482015290519081900360640190fd5b7f00000000000000000000000000000000000000000000000000000000000000006001600160a01b0316635ffe6146826040518263ffffffff1660e01b815260040180828152602001915050600060405180830381600087803b15801561168057600080fd5b505af1158015610b70573d6000803e3d6000fd5b6001546001600160a01b031633146116e1576040805162461bcd60e51b815260206004820152601c60248201526000805160206125f7833981519152604482015290519081900360640190fd5b825184511461172f576040805162461bcd60e51b81526020600482015260156024820152740c2e4e4c2f240d8cadccee8d040dad2e6dac2e8c6d605b1b604482015290519081900360640190fd5b81156117a9577f00000000000000000000000000000000000000000000000000000000000000006001600160a01b031663630b5ba16040518163ffffffff1660e01b8152600401600060405180830381600087803b15801561179057600080fd5b505af11580156117a4573d6000803e3d6000fd5b505050505b60005b84518110156118e4577f00000000000000000000000000000000000000000000000000000000000000006001600160a01b0316631eaaa0458683815181106117f057fe5b602002602001015186848151811061180457fe5b602002602001015160006040518463ffffffff1660e01b815260040180848152602001836001600160a01b0316815260200182151581526020019350505050600060405180830381600087803b15801561185d57600080fd5b505af1158015611871573d6000803e3d6000fd5b5050505083818151811061188157fe5b60200260200101516001600160a01b03167f870ca13a686db78882bce0c844dfc9507f10d43d56e9abedcaf29c13321bac058683815181106118bf57fe5b60200260200101516040518082815260200191505060405180910390a26001016117ac565b5080156118f3576118f3611f3d565b50505050565b6001546001600160a01b03163314611946576040805162461bcd60e51b815260206004820152601c60248201526000805160206125f7833981519152604482015290519081900360640190fd5b6001600160a01b03811661198b5760405162461bcd60e51b815260040180806020018281038252602881526020018061267d6028913960400191505060405180910390fd5b600180546001600160a01b038381166001600160a01b03198316179283905560405191811692169082907fe26b86b59af1ab12a8e5cd4068e9f64c19ef575cf3bf30bf37b92fef2a20411390600090a35050565b61271081565b6001546001600160a01b03163314611a32576040805162461bcd60e51b815260206004820152601c60248201526000805160206125f7833981519152604482015290519081900360640190fd5b6000848152600460205260409020600281015460ff16611a90576040805162461bcd60e51b81526020600482015260146024820152731b9bdd0818481d985b1a590819985c9b481c1a5960621b604482015290519081900360640190fd5b6000611ab58260010154611aaf60055488611eda90919063ffffffff16565b906123a6565b9050611964811115611b0e576040805162461bcd60e51b815260206004820152601c60248201527f6e657720616c6c6f636174696f6e206f7574206f6620626f756e647300000000604482015290519081900360640190fd5b60058190556001820180549086905585611b745760028301805460ff1916905560005b600354811015611b72578760038281548110611b4957fe5b90600052602060002001541415611b6a57611b658160036123e8565b611b72565b600101611b31565b505b6040805182815260208101889052815189927fa23c6176b0c16652f1119ebe6593b1610c0c711b05167b035697e3269e9cf807928290030190a28415611c28577f00000000000000000000000000000000000000000000000000000000000000006001600160a01b031663630b5ba16040518163ffffffff1660e01b8152600401600060405180830381600087803b158015611c0f57600080fd5b505af1158015611c23573d6000803e3d6000fd5b505050505b8315611c3657611c36611f3d565b50505050505050565b600481565b611c4c612307565b6000546001600160a01b03908116911614611c9c576040805162461bcd60e51b8152602060048201819052602482015260008051602061265d833981519152604482015290519081900360640190fd5b6001600160a01b038116611ce15760405162461bcd60e51b81526004018080602001828103825260268152602001806125d16026913960400191505060405180910390fd5b600080546040516001600160a01b03808516939216917f8be0079c531659141344cd1fd0a4f28419497f9722a3daafe3b4186f6b6457e091a3600080546001600160a01b0319166001600160a01b0392909216919091179055565b611d44612307565b6000546001600160a01b03908116911614611d94576040805162461bcd60e51b8152602060048201819052602482015260008051602061265d833981519152604482015290519081900360640190fd5b600280546001600160a01b0319166001600160a01b03838116919091179182905560408051929091168252517f740517b0d93c7e23aa79c6d4292db0cf0ca7ff511f980c52f23b7720591733a0916020908290030190a150565b6002546001600160a01b03163314611e41576040805162461bcd60e51b81526020600482015260116024820152703737ba103832b73234b7339037bbb732b960791b604482015290519081900360640190fd5b6002546040805163f2fde38b60e01b81526001600160a01b03928316600482015290517f00000000000000000000000000000000000000000000000000000000000000009092169163f2fde38b9160248082019260009290919082900301818387803b158015611eb057600080fd5b505af1158015611ec4573d6000803e3d6000fd5b5050600280546001600160a01b03191690555050565b600082820183811015611f34576040805162461bcd60e51b815260206004820152601b60248201527f536166654d6174683a206164646974696f6e206f766572666c6f770000000000604482015290519081900360640190fd5b90505b92915050565b6000611f476112c8565b905080611f545750610ccc565b60007f00000000000000000000000000000000000000000000000000000000000000006001600160a01b03166317caf6f16040518163ffffffff1660e01b815260040160206040518083038186803b158015611faf57600080fd5b505afa158015611fc3573d6000803e3d6000fd5b505050506040513d6020811015611fd957600080fd5b505160408051632f380b3560e01b8152600060048201819052915192935090916001600160a01b037f00000000000000000000000000000000000000000000000000000000000000001691632f380b35916024808301926080929190829003018186803b15801561204957600080fd5b505afa15801561205d573d6000803e3d6000fd5b505050506040513d608081101561207357600080fd5b5060200151905060008061208561080b565b905060005b858110156121555760007f00000000000000000000000000000000000000000000000000000000000000006001600160a01b0316632f380b35600384815481106120d057fe5b90600052602060002001546040518263ffffffff1660e01b81526004018082815260200191505060806040518083038186803b15801561210f57600080fd5b505afa158015612123573d6000803e3d6000fd5b505050506040513d608081101561213957600080fd5b5060200151905061214a8482611eda565b93505060010161208a565b50600061216683611aaf87876123a6565b90506000612176612710846123a6565b6305f5e1008161218257fe5b0490506000612197612710611531858561230b565b905060006121a582856123a6565b905060005b898110156122fb576121ba612586565b60046000600384815481106121cb57fe5b600091825260208083209091015483528281019390935260409182018120825160608101845281548152600182015494810185905260029091015460ff161515928101929092529092509061222790899061153190879061230b565b8251604080516364482f7960e01b815260048101929092526024820183905260006044830181905290519293506001600160a01b037f000000000000000000000000000000000000000000000000000000000000000016926364482f7992606480820193929182900301818387803b1580156122a257600080fd5b505af11580156122b6573d6000803e3d6000fd5b505083516040805185815290519193507faf6de0e99985e2141e73432bf0e3b3ca80f31561c97ef2fb113614913d5a76cd925081900360200190a250506001016121aa565b50505050505050505050565b3390565b60008261231a57506000611f37565b8282028284828161232757fe5b0414611f345760405162461bcd60e51b815260040180806020018281038252602181526020018061263c6021913960400191505060405180910390fd5b6000611f3483836040518060400160405280601a81526020017f536166654d6174683a206469766973696f6e206279207a65726f00000000000081525061248a565b6000611f3483836040518060400160405280601e81526020017f536166654d6174683a207375627472616374696f6e206f766572666c6f77000081525061252c565b8054821061242f576040805162461bcd60e51b815260206004820152600f60248201526e092dcc6dee4e4cac6e840d2dcc8caf608b1b604482015290519081900360640190fd5b80548190600019810190811061244157fe5b906000526020600020015481838154811061245857fe5b90600052602060002001819055508080548061247057fe5b600190038181906000526020600020016000905590555050565b600081836125165760405162461bcd60e51b81526004018080602001828103825283818151815260200191508051906020019080838360005b838110156124db5781810151838201526020016124c3565b50505050905090810190601f1680156125085780820380516001836020036101000a031916815260200191505b509250505060405180910390fd5b50600083858161252257fe5b0495945050505050565b6000818484111561257e5760405162461bcd60e51b81526020600482018181528351602484015283519092839260449091019190850190808383600083156124db5781810151838201526020016124c3565b505050900390565b60405180606001604052806000815260200160008152602001600015158152509056fe63616e6e6f7420616464207265736572766564204d617374657242616c616e63652070696420304f776e61626c653a206e6577206f776e657220697320746865207a65726f20616464726573736d7573742062652063616c6c6564206279206661726d2061646d696e00000000706964206973206f7574206f6620626f756e6473206f66204d617374657242616c616e6365536166654d6174683a206d756c7469706c69636174696f6e206f766572666c6f774f776e61626c653a2063616c6c6572206973206e6f7420746865206f776e657263616e6e6f74207472616e73666572206661726d2061646d696e20746f2061646472657373283029a2646970667358221220a9978d56d1a017e76247164d222f332d02cbd44da04f5fc8687e0bfa107c401764736f6c634300060c0033",
  "immutableReferences": {
    "7982": [
      {
        "length": 32,
        "start": 2154
      },
      {
        "length": 32,
        "start": 2800
      },
      {
        "length": 32,
        "start": 2949
      },
      {
        "length": 32,
        "start": 3280
      },
      {
        "length": 32,
        "start": 4134
      },
      {
        "length": 32,
        "start": 4252
      },
      {
        "length": 32,
        "start": 4480
      },
      {
        "length": 32,
        "start": 4828
      },
      {
        "length": 32,
        "start": 4985
      },
      {
        "length": 32,
        "start": 5138
      },
      {
        "length": 32,
        "start": 5292
      },
      {
        "length": 32,
        "start": 5660
      },
      {
        "length": 32,
        "start": 5943
      },
      {
        "length": 32,
        "start": 6071
      },
      {
        "length": 32,
        "start": 7094
      },
      {
        "length": 32,
        "start": 7782
      },
      {
        "length": 32,
        "start": 8024
      },
      {
        "length": 32,
        "start": 8195
      },
      {
        "length": 32,
        "start": 8342
      },
      {
        "length": 32,
        "start": 8798
      }
    ]
  },
  "source": "// SPDX-License-Identifier: MIT\npragma solidity 0.6.12;\n\n/*\n * BalanceSwapFinance\n * App:             https://Balanceswap.finance\n * Medium:          https://medium.com/@Balance_swap\n * Twitter:         https://twitter.com/Balance_swap\n * Telegram:        https://t.me/Balance_swap\n * Announcements:   https://t.me/Balance_swap_news\n * GitHub:          https://github.com/BalanceSwapFinance\n */\n\n\nimport \"@openzeppelin/contracts/math/SafeMath.sol\";\nimport \"@openzeppelin/contracts/access/Ownable.sol\";\nimport \"@openzeppelin/contracts/token/ERC20/IERC20.sol\";\nimport \"./interfaces/IMasterBalance.sol\";\n\n/// @title Admin MasterBalance proxy contract used to add features to MasterBalance admin functions\n/// @dev This contract does NOT handle changing the dev address of the MasterBalance because that can only be done\n///  by the dev address itself\n/// @author DeFiFoFum (Balancetastic)\n/// @notice Admin functions are separated into onlyOwner and onlyFarmAdmin to separate concerns\ncontract MasterBalanceAdmin is Ownable {\n    using SafeMath for uint256;\n\n    struct FixedPercentFarmInfo {\n        uint256 pid;\n        uint256 allocationPercent;\n        bool isActive;\n    }\n\n    /// @notice Farm admin can manage master Balance farms and fixed percent farms\n    address public farmAdmin;\n    /// @notice MasterBalance Address\n    IMasterBalance immutable public masterBalance;\n    /// @notice Address which is eligible to accept ownership of the MasterBalance. Set by the current owner.\n    address public pendingMasterBalanceOwner = address(0);\n    /// @notice Array of MasterBalance pids that are active fixed percent farms\n    uint256[] public fixedPercentFarmPids;\n    /// @notice mapping of MasterBalance pids to FixedPercentFarmInfo\n    mapping(uint256 => FixedPercentFarmInfo) public getFixedPercentFarmFromPid;\n    /// @notice The percentages are divided by 10000\n    uint256 constant public PERCENTAGE_PRECISION = 1e4;\n    /// @notice Percentage of base pool allocation managed by MasterBalance internally\n    /// @dev The BASE_PERCENTAGE needs to be considered in fixed percent farm allocation updates as it's allocation is based on a percentage\n    uint256 constant public BASE_PERCENTAGE = PERCENTAGE_PRECISION / 4; // The base staking pool always gets 25%\n    /// @notice Approaching max fixed farm percentage makes the fixed farm allocations go to infinity\n    uint256 constant public MAX_FIXED_FARM_PERCENTAGE_BUFFER = PERCENTAGE_PRECISION / 10; // 10% Buffer\n    /// @notice Percentage available to additional fixed percent farms\n    uint256 constant public MAX_FIXED_FARM_PERCENTAGE = PERCENTAGE_PRECISION - BASE_PERCENTAGE - MAX_FIXED_FARM_PERCENTAGE_BUFFER;\n    /// @notice Total allocation percentage for fixed percent farms\n    uint256 public totalFixedPercentFarmPercentage = 0;\n    /// @notice Max multiplier which is possible to be set on the MasterBalance\n    uint256 constant public MAX_BONUS_MULTIPLIER = 4;\n\n    event SetPendingMasterBalanceOwner(address pendingMasterBalanceOwner);\n    event AddFarm(IERC20 indexed lpToken, uint256 allocation);\n    event SetFarm(uint256 indexed pid, uint256 allocation);\n    event SyncFixedPercentFarm(uint256 indexed pid, uint256 allocation);\n    event AddFixedPercentFarm(uint256 indexed pid, uint256 allocationPercentage);\n    event SetFixedPercentFarm(uint256 indexed pid, uint256 previousAllocationPercentage, uint256 allocationPercentage);\n    event TransferredFarmAdmin(address indexed previousFarmAdmin, address indexed newFarmAdmin);\n    event SweepWithdraw(address indexed to, IERC20 indexed token, uint256 amount);\n\n\n    constructor(\n        IMasterBalance _masterBalance,\n        address _farmAdmin\n    ) public {\n        masterBalance = _masterBalance;\n        farmAdmin = _farmAdmin;\n    }\n\n    modifier onlyFarmAdmin() {\n        require(msg.sender == farmAdmin, \"must be called by farm admin\");\n        _;\n    }\n\n    /** External Functions  */\n\n    /// @notice Set an address as the pending admin of the MasterBalance. The address must accept afterward to take ownership.\n    /// @param _pendingMasterBalanceOwner Address to set as the pending owner of the MasterBalance.\n    function setPendingMasterBalanceOwner(address _pendingMasterBalanceOwner) external onlyOwner {\n        pendingMasterBalanceOwner = _pendingMasterBalanceOwner;\n        emit SetPendingMasterBalanceOwner(pendingMasterBalanceOwner);\n    }\n\n    /// @notice The pendingMasterBalanceOwner takes ownership through this call\n    /// @dev Transferring MasterBalance ownership away from this contract renders this contract useless. \n    function acceptMasterBalanceOwnership() external {\n        require(msg.sender == pendingMasterBalanceOwner, \"not pending owner\");\n        masterBalance.transferOwnership(pendingMasterBalanceOwner);\n        pendingMasterBalanceOwner = address(0);\n    }\n\n    /// @notice Update the rewardPerBlock multiplier on the MasterBalance contract\n    /// @param _newMultiplier Multiplier to change to\n    function updateMasterBalanceMultiplier(uint256 _newMultiplier) external onlyOwner {\n        require(_newMultiplier <= MAX_BONUS_MULTIPLIER, 'multiplier greater than max');\n        masterBalance.updateMultiplier(_newMultiplier);\n    }\n\n    /// @notice Helper function to update MasterBalance pools in batches \n    /// @dev The MasterBalance massUpdatePools function uses a for loop which in the future\n    ///  could reach the block gas limit making it incallable. \n    /// @param pids Array of MasterBalance pids to update\n    function batchUpdateMasterBalancePools(uint256[] memory pids) external {\n        for (uint256 pidIndex = 0; pidIndex < pids.length; pidIndex++) {\n            masterBalance.updatePool(pids[pidIndex]);\n        }\n    }\n\n    // @notice Obtain detailed allocation information regarding a MasterBalance pool\n    // @param pid MasterBalance pid to pull detailed information from\n    // @return lpToken Address of the stake token for this pool\n    // @return poolAllocationPoint Allocation points for this pool\n    // @return totalAllocationPoints Total allocation points across all pools\n    // @return poolAllocationPercentMantissa Percentage of pool allocation points to total multiplied by 1e18\n    // @return poolBalancerBlock Amount of Balance given to the pool per block\n    // @return poolBalancerDay Amount of Balance given to the pool per day\n    // @return poolBalancerMonth Amount of Balance given to the pool per month\n    function getDetailedPoolInfo(uint pid) external view returns (\n        address lpToken,\n        uint256 poolAllocationPoint,\n        uint256 totalAllocationPoints,\n        uint256 poolAllocationPercentMantissa,\n        uint256 poolBalancerBlock,\n        uint256 poolBalancePerDay,\n        uint256 poolBalancePerMonth\n    ) {\n        uint256 poolBalancePerBlock = masterBalance.cakePerBlock() * masterBalance.BONUS_MULTIPLIER();\n        ( lpToken, poolAllocationPoint,,) = masterBalance.getPoolInfo(pid);\n        totalAllocationPoints = masterBalance.totalAllocPoint();\n        poolAllocationPercentMantissa = (poolAllocationPoint.mul(1e18)).div(totalAllocationPoints);\n        poolBalancePerBlock = (poolBalancePerBlock.mul(poolAllocationPercentMantissa)).div(1e18);\n        // Assumes a 3 second blocktime\n        poolBalancePerDay = poolBalancePerBlock * 1200 * 24;\n        poolBalancePerMonth = poolBalancePerDay * 30;\n    }\n\n    /// @notice An external function to sweep accidental ERC20 transfers to this contract. \n    ///   Tokens are sent to owner\n    /// @param _tokens Array of ERC20 addresses to sweep\n    /// @param _to Address to send tokens to\n    function sweepTokens(IERC20[] memory _tokens, address _to) external onlyOwner {\n        for (uint256 index = 0; index < _tokens.length; index++) {\n            IERC20 token = _tokens[index];\n            uint256 balance = token.balanceOf(address(this));\n            token.transfer(_to, balance);\n            emit SweepWithdraw(_to, token, balance);\n        }\n    }\n\n    /// @notice Transfer the farmAdmin to a new address\n    /// @param _newFarmAdmin Address of new farmAdmin\n    function transferFarmAdminOwnership(address _newFarmAdmin) external onlyFarmAdmin {\n        require(_newFarmAdmin != address(0), 'cannot transfer farm admin to address(0)');\n        address previousFarmAdmin = farmAdmin;\n        farmAdmin = _newFarmAdmin;\n        emit TransferredFarmAdmin(previousFarmAdmin, farmAdmin);\n    }\n\n    /// @notice Update pool allocations based on fixed percentage farm percentages\n    function syncFixedPercentFarms() external onlyFarmAdmin {\n        require(getNumberOfFixedPercentFarms() > 0, 'no fixed farms added');\n        _syncFixedPercentFarms();\n    }\n\n\n    /// @notice Add a batch of farms to the MasterBalance contract\n    /// @dev syncs fixed percentage farms after update\n    /// @param _allocPoints Array of allocation points to set each address\n    /// @param _withMassPoolUpdate Mass update pools before update\n    /// @param _syncFixedPercentageFarms Sync fixed percentage farm allocations\n    function addMasterBalanceFarms(\n        uint256[] memory _allocPoints,\n        IERC20[] memory _lpTokens,\n        bool _withMassPoolUpdate,\n        bool _syncFixedPercentageFarms\n    ) external onlyFarmAdmin {\n        require(_allocPoints.length == _lpTokens.length, \"array length mismatch\");\n\n        if (_withMassPoolUpdate) {\n            masterBalance.massUpdatePools();\n        }\n\n        for (uint256 index = 0; index < _allocPoints.length; index++) {\n            masterBalance.add(_allocPoints[index], address(_lpTokens[index]), false);\n            emit AddFarm(_lpTokens[index], _allocPoints[index]);\n        }\n\n        if (_syncFixedPercentageFarms) {\n            _syncFixedPercentFarms();\n        }\n    }\n\n    /// @notice Add a batch of farms to the MasterBalance contract\n    /// @dev syncs fixed percentage farms after update\n    /// @param _pids Array of MasterBalance pool ids to update\n    /// @param _allocPoints Array of allocation points to set each pid\n    /// @param _withMassPoolUpdate Mass update pools before update\n    /// @param _syncFixedPercentageFarms Sync fixed percentage farm allocations\n    function setMasterBalanceFarms(\n        uint256[] memory _pids,\n        uint256[] memory _allocPoints,\n        bool _withMassPoolUpdate,\n        bool _syncFixedPercentageFarms\n    ) external onlyFarmAdmin {\n        require(_pids.length == _allocPoints.length, \"array length mismatch\");\n\n        if (_withMassPoolUpdate) {\n            masterBalance.massUpdatePools();\n        }\n\n        uint256 pidIndexes = masterBalance.poolLength();\n        for (uint256 index = 0; index < _pids.length; index++) {\n            require(_pids[index] < pidIndexes, \"pid is out of bounds of MasterBalance\");\n            // Set all pids with no update\n            masterBalance.set(_pids[index], _allocPoints[index], false);\n            emit SetFarm(_pids[index], _allocPoints[index]);\n        }\n\n        if (_syncFixedPercentageFarms) {\n            _syncFixedPercentFarms();\n        }\n    }\n\n    /// @notice Add a new fixed percentage farm allocation\n    /// @dev Must be a new MasterBalance pid and below the max fixed percentage \n    /// @param _pid MasterBalance pid to create a fixed percentage farm for\n    /// @param _allocPercentage Percentage based in PERCENTAGE_PRECISION\n    /// @param _withMassPoolUpdate Mass update pools before update\n    /// @param _syncFixedPercentageFarms Sync fixed percentage farm allocations\n    function addFixedPercentFarmAllocation(\n        uint256 _pid,\n        uint256 _allocPercentage,\n        bool _withMassPoolUpdate,\n        bool _syncFixedPercentageFarms\n    ) external onlyFarmAdmin {\n        require(_pid < masterBalance.poolLength(), \"pid is out of bounds of MasterBalance\");\n        require(_pid != 0, \"cannot add reserved MasterBalance pid 0\");\n        require(!getFixedPercentFarmFromPid[_pid].isActive, \"fixed percent farm already added\");\n        uint256 newTotalFixedPercentage = totalFixedPercentFarmPercentage.add(_allocPercentage);\n        require(newTotalFixedPercentage <= MAX_FIXED_FARM_PERCENTAGE, \"allocation out of bounds\");\n    \n        totalFixedPercentFarmPercentage = newTotalFixedPercentage;\n        getFixedPercentFarmFromPid[_pid] = FixedPercentFarmInfo(_pid, _allocPercentage, true);\n        fixedPercentFarmPids.push(_pid);\n        emit AddFixedPercentFarm(_pid, _allocPercentage);\n       \n        if (_withMassPoolUpdate) {\n            masterBalance.massUpdatePools();\n        }\n\n        if (_syncFixedPercentageFarms) {\n            _syncFixedPercentFarms();\n        }\n    }\n\n    /// @notice Update/disable a new fixed percentage farm allocation\n    /// @dev If the farm allocation is 0, then the fixed farm will be disabled, but the allocation will be unchanged.\n    /// @param _pid MasterBalance pid linked to fixed percentage farm to update\n    /// @param _allocPercentage Percentage based in PERCENTAGE_PRECISION\n    /// @param _withMassPoolUpdate Mass update pools before update\n    /// @param _syncFixedPercentageFarms Sync fixed percentage farm allocations\n    function setFixedPercentFarmAllocation(\n        uint256 _pid,\n        uint256 _allocPercentage,\n        bool _withMassPoolUpdate,\n        bool _syncFixedPercentageFarms\n    ) external onlyFarmAdmin {\n        FixedPercentFarmInfo storage fixedPercentFarm = getFixedPercentFarmFromPid[_pid];\n        require(fixedPercentFarm.isActive, \"not a valid farm pid\");\n        uint256 newTotalFixedPercentFarmPercentage = _allocPercentage.add(totalFixedPercentFarmPercentage).sub(fixedPercentFarm.allocationPercent);\n        require(newTotalFixedPercentFarmPercentage <= MAX_FIXED_FARM_PERCENTAGE, \"new allocation out of bounds\");\n\n        totalFixedPercentFarmPercentage = newTotalFixedPercentFarmPercentage;\n        uint256 previousAllocation = fixedPercentFarm.allocationPercent;\n        fixedPercentFarm.allocationPercent = _allocPercentage;\n\n        if(_allocPercentage == 0) {\n            // Disable fixed percentage farm and MasterBalance allocation\n            fixedPercentFarm.isActive = false;\n            // Remove fixed percent farm from pid array\n            for (uint256 index = 0; index < fixedPercentFarmPids.length; index++) {\n                if(fixedPercentFarmPids[index] == _pid) {\n                    _removeFromArray(index, fixedPercentFarmPids);\n                    break;\n                }\n            }\n            // NOTE: The MasterBalance pool allocation is left unchanged to not disable a fixed farm \n            //  in case the creation was an accident.\n        }\n        emit SetFixedPercentFarm(_pid, previousAllocation, _allocPercentage);\n      \n        if (_withMassPoolUpdate) {\n            masterBalance.massUpdatePools();\n        }\n\n        if (_syncFixedPercentageFarms) {\n            _syncFixedPercentFarms();\n        }\n    }\n\n    /** Public Functions  */\n\n    /// @notice Get the number of registered fixed percentage farms\n    /// @return Number of active fixed percentage farms \n    function getNumberOfFixedPercentFarms() public view returns (uint256) {\n        return fixedPercentFarmPids.length;\n    }\n\n    /// @notice Get the total percentage allocated to fixed percentage farms on the MasterBalance\n    /// @dev Adds the total percent allocated to fixed percentage farms with the percentage allocated to the Balance pool. \n    ///  The MasterBalance manages the Balance pool internally and we need to account for this when syncing fixed percentage farms.\n    /// @return Total percentage based in PERCENTAGE_PRECISION \n    function getTotalAllocationPercent() public view returns (uint256) {\n        return totalFixedPercentFarmPercentage + BASE_PERCENTAGE;\n    }\n\n\n    /** Internal Functions  */\n\n    /// @notice Run through fixed percentage farm allocations and set MasterBalance allocations to match the percentage.\n    /// @dev The MasterBalance contract manages the Balance pool percentage on its own which is accounted for in the calculations below. \n    function _syncFixedPercentFarms() internal {\n        uint256 numberOfFixedPercentFarms = getNumberOfFixedPercentFarms();\n        if(numberOfFixedPercentFarms == 0) {\n            return; \n        }\n        uint256 masterBalanceTotalAllocation = masterBalance.totalAllocPoint();\n        ( ,uint256 poolAllocation,,) = masterBalance.getPoolInfo(0);\n        uint256 currentTotalFixedPercentFarmAllocation = 0;\n        // Define local vars that are used multiple times\n        uint256 totalAllocationPercent = getTotalAllocationPercent();\n        // Calculate the total allocation points of the fixed percent farms\n        for (uint256 index = 0; index < numberOfFixedPercentFarms; index++) {\n            ( ,uint256 fixedPercentFarmAllocation,,) = masterBalance.getPoolInfo(fixedPercentFarmPids[index]);\n            currentTotalFixedPercentFarmAllocation = currentTotalFixedPercentFarmAllocation.add(fixedPercentFarmAllocation);\n        }\n        // Calculate alloted allocations\n        uint256 nonPercentageBasedAllocation = masterBalanceTotalAllocation.sub(poolAllocation).sub(currentTotalFixedPercentFarmAllocation);\n        uint256 percentageIncrease = (PERCENTAGE_PRECISION * PERCENTAGE_PRECISION) / (PERCENTAGE_PRECISION.sub(totalAllocationPercent));\n        uint256 finalAllocation = nonPercentageBasedAllocation.mul(percentageIncrease).div(PERCENTAGE_PRECISION);\n        uint256 allotedFixedPercentFarmAllocation = finalAllocation.sub(nonPercentageBasedAllocation);\n        // Update fixed percentage farm allocations\n        for (uint256 index = 0; index < numberOfFixedPercentFarms; index++) {\n            FixedPercentFarmInfo memory fixedPercentFarm = getFixedPercentFarmFromPid[fixedPercentFarmPids[index]];\n            uint256 newFixedPercentFarmAllocation = allotedFixedPercentFarmAllocation.mul(fixedPercentFarm.allocationPercent).div(totalAllocationPercent);\n            masterBalance.set(fixedPercentFarm.pid, newFixedPercentFarmAllocation, false);\n            emit SyncFixedPercentFarm(fixedPercentFarm.pid, newFixedPercentFarmAllocation);\n        }\n    }\n\n    /// @notice Remove an index from an array by copying the last element to the index and then removing the last element.\n    function _removeFromArray(uint index, uint256[] storage array) internal {\n        require(index < array.length, \"Incorrect index\");\n        array[index] = array[array.length-1];\n        array.pop();\n    }\n}\n",
  "sourcePath": "C:\\Users\\OmrElibol\\OneDrive\\Masast\\BalanceContractRevise\\contracts\\MasterBalanceAdmin.sol",
  "compiler": {
    "name": "solc",
    "version": "0.6.12+commit.27d51765.Emscripten.clang"
  },
  "schemaVersion": "3.4.10",
  "updatedAt": "2022-10-03T08:13:27.231Z",
  "devdoc": {
    "author": "DeFiFoFum (Balancetastic)",
    "details": "This contract does NOT handle changing the dev address of the MasterBalance because that can only be done  by the dev address itself",
    "kind": "dev",
    "methods": {
      "acceptMasterBalanceOwnership()": {
        "details": "Transferring MasterBalance ownership away from this contract renders this contract useless. "
      },
      "addFixedPercentFarmAllocation(uint256,uint256,bool,bool)": {
        "details": "Must be a new MasterBalance pid and below the max fixed percentage ",
        "params": {
          "_allocPercentage": "Percentage based in PERCENTAGE_PRECISION",
          "_pid": "MasterBalance pid to create a fixed percentage farm for",
          "_syncFixedPercentageFarms": "Sync fixed percentage farm allocations",
          "_withMassPoolUpdate": "Mass update pools before update"
        }
      },
      "addMasterBalanceFarms(uint256[],address[],bool,bool)": {
        "details": "syncs fixed percentage farms after update",
        "params": {
          "_allocPoints": "Array of allocation points to set each address",
          "_syncFixedPercentageFarms": "Sync fixed percentage farm allocations",
          "_withMassPoolUpdate": "Mass update pools before update"
        }
      },
      "batchUpdateMasterBalancePools(uint256[])": {
        "details": "The MasterBalance massUpdatePools function uses a for loop which in the future  could reach the block gas limit making it incallable. ",
        "params": {
          "pids": "Array of MasterBalance pids to update"
        }
      },
      "getNumberOfFixedPercentFarms()": {
        "returns": {
          "_0": "Number of active fixed percentage farms "
        }
      },
      "getTotalAllocationPercent()": {
        "details": "Adds the total percent allocated to fixed percentage farms with the percentage allocated to the Balance pool.   The MasterBalance manages the Balance pool internally and we need to account for this when syncing fixed percentage farms.",
        "returns": {
          "_0": "Total percentage based in PERCENTAGE_PRECISION "
        }
      },
      "owner()": {
        "details": "Returns the address of the current owner."
      },
      "renounceOwnership()": {
        "details": "Leaves the contract without owner. It will not be possible to call `onlyOwner` functions anymore. Can only be called by the current owner. NOTE: Renouncing ownership will leave the contract without an owner, thereby removing any functionality that is only available to the owner."
      },
      "setFixedPercentFarmAllocation(uint256,uint256,bool,bool)": {
        "details": "If the farm allocation is 0, then the fixed farm will be disabled, but the allocation will be unchanged.",
        "params": {
          "_allocPercentage": "Percentage based in PERCENTAGE_PRECISION",
          "_pid": "MasterBalance pid linked to fixed percentage farm to update",
          "_syncFixedPercentageFarms": "Sync fixed percentage farm allocations",
          "_withMassPoolUpdate": "Mass update pools before update"
        }
      },
      "setMasterBalanceFarms(uint256[],uint256[],bool,bool)": {
        "details": "syncs fixed percentage farms after update",
        "params": {
          "_allocPoints": "Array of allocation points to set each pid",
          "_pids": "Array of MasterBalance pool ids to update",
          "_syncFixedPercentageFarms": "Sync fixed percentage farm allocations",
          "_withMassPoolUpdate": "Mass update pools before update"
        }
      },
      "setPendingMasterBalanceOwner(address)": {
        "params": {
          "_pendingMasterBalanceOwner": "Address to set as the pending owner of the MasterBalance."
        }
      },
      "sweepTokens(address[],address)": {
        "params": {
          "_to": "Address to send tokens to",
          "_tokens": "Array of ERC20 addresses to sweep"
        }
      },
      "transferFarmAdminOwnership(address)": {
        "params": {
          "_newFarmAdmin": "Address of new farmAdmin"
        }
      },
      "transferOwnership(address)": {
        "details": "Transfers ownership of the contract to a new account (`newOwner`). Can only be called by the current owner."
      },
      "updateMasterBalanceMultiplier(uint256)": {
        "params": {
          "_newMultiplier": "Multiplier to change to"
        }
      }
    },
    "stateVariables": {
      "BASE_PERCENTAGE": {
        "details": "The BASE_PERCENTAGE needs to be considered in fixed percent farm allocation updates as it's allocation is based on a percentage"
      }
    },
    "title": "Admin MasterBalance proxy contract used to add features to MasterBalance admin functions",
    "version": 1
  },
  "userdoc": {
    "kind": "user",
    "methods": {
      "BASE_PERCENTAGE()": {
        "notice": "Percentage of base pool allocation managed by MasterBalance internally"
      },
      "MAX_BONUS_MULTIPLIER()": {
        "notice": "Max multiplier which is possible to be set on the MasterBalance"
      },
      "MAX_FIXED_FARM_PERCENTAGE()": {
        "notice": "Percentage available to additional fixed percent farms"
      },
      "MAX_FIXED_FARM_PERCENTAGE_BUFFER()": {
        "notice": "Approaching max fixed farm percentage makes the fixed farm allocations go to infinity"
      },
      "PERCENTAGE_PRECISION()": {
        "notice": "The percentages are divided by 10000"
      },
      "acceptMasterBalanceOwnership()": {
        "notice": "The pendingMasterBalanceOwner takes ownership through this call"
      },
      "addFixedPercentFarmAllocation(uint256,uint256,bool,bool)": {
        "notice": "Add a new fixed percentage farm allocation"
      },
      "addMasterBalanceFarms(uint256[],address[],bool,bool)": {
        "notice": "Add a batch of farms to the MasterBalance contract"
      },
      "batchUpdateMasterBalancePools(uint256[])": {
        "notice": "Helper function to update MasterBalance pools in batches "
      },
      "farmAdmin()": {
        "notice": "Farm admin can manage master Balance farms and fixed percent farms"
      },
      "fixedPercentFarmPids(uint256)": {
        "notice": "Array of MasterBalance pids that are active fixed percent farms"
      },
      "getFixedPercentFarmFromPid(uint256)": {
        "notice": "mapping of MasterBalance pids to FixedPercentFarmInfo"
      },
      "getNumberOfFixedPercentFarms()": {
        "notice": "Get the number of registered fixed percentage farms"
      },
      "getTotalAllocationPercent()": {
        "notice": "Get the total percentage allocated to fixed percentage farms on the MasterBalance"
      },
      "masterBalance()": {
        "notice": "MasterBalance Address"
      },
      "pendingMasterBalanceOwner()": {
        "notice": "Address which is eligible to accept ownership of the MasterBalance. Set by the current owner."
      },
      "setFixedPercentFarmAllocation(uint256,uint256,bool,bool)": {
        "notice": "Update/disable a new fixed percentage farm allocation"
      },
      "setMasterBalanceFarms(uint256[],uint256[],bool,bool)": {
        "notice": "Add a batch of farms to the MasterBalance contract"
      },
      "setPendingMasterBalanceOwner(address)": {
        "notice": "Set an address as the pending admin of the MasterBalance. The address must accept afterward to take ownership."
      },
      "sweepTokens(address[],address)": {
        "notice": "An external function to sweep accidental ERC20 transfers to this contract.    Tokens are sent to owner"
      },
      "syncFixedPercentFarms()": {
        "notice": "Update pool allocations based on fixed percentage farm percentages"
      },
      "totalFixedPercentFarmPercentage()": {
        "notice": "Total allocation percentage for fixed percent farms"
      },
      "transferFarmAdminOwnership(address)": {
        "notice": "Transfer the farmAdmin to a new address"
      },
      "updateMasterBalanceMultiplier(uint256)": {
        "notice": "Update the rewardPerBlock multiplier on the MasterBalance contract"
      }
    },
    "notice": "Admin functions are separated into onlyOwner and onlyFarmAdmin to separate concerns",
    "version": 1
  }
}